{
  "contracts/PoropAja.sol": {
    "PoropAja": {
      "abi": [
        {
          "inputs": [],
          "stateMutability": "nonpayable",
          "type": "constructor"
        },
        {
          "anonymous": false,
          "inputs": [
            {
              "indexed": false,
              "internalType": "uint256",
              "name": "id",
              "type": "uint256"
            },
            {
              "indexed": false,
              "internalType": "uint256",
              "name": "price",
              "type": "uint256"
            },
            {
              "indexed": false,
              "internalType": "uint256",
              "name": "amount",
              "type": "uint256"
            },
            {
              "indexed": false,
              "internalType": "address",
              "name": "seller",
              "type": "address"
            },
            {
              "indexed": false,
              "internalType": "address",
              "name": "owner",
              "type": "address"
            }
          ],
          "name": "Ask",
          "type": "event"
        },
        {
          "anonymous": false,
          "inputs": [
            {
              "indexed": false,
              "internalType": "uint256",
              "name": "id",
              "type": "uint256"
            },
            {
              "indexed": false,
              "internalType": "uint256",
              "name": "price",
              "type": "uint256"
            },
            {
              "indexed": false,
              "internalType": "uint256",
              "name": "amount",
              "type": "uint256"
            },
            {
              "indexed": false,
              "internalType": "address",
              "name": "seller",
              "type": "address"
            },
            {
              "indexed": false,
              "internalType": "address",
              "name": "owner",
              "type": "address"
            }
          ],
          "name": "Bid",
          "type": "event"
        },
        {
          "inputs": [
            {
              "internalType": "string",
              "name": "_tokenContract",
              "type": "string"
            }
          ],
          "name": "getGlobalWalletBalance",
          "outputs": [
            {
              "internalType": "uint256",
              "name": "",
              "type": "uint256"
            }
          ],
          "stateMutability": "view",
          "type": "function"
        },
        {
          "inputs": [
            {
              "internalType": "string",
              "name": "_tokenContract",
              "type": "string"
            }
          ],
          "name": "getMyWalletBalance",
          "outputs": [
            {
              "internalType": "uint256",
              "name": "",
              "type": "uint256"
            }
          ],
          "stateMutability": "view",
          "type": "function"
        },
        {
          "inputs": [],
          "name": "owner",
          "outputs": [
            {
              "internalType": "address",
              "name": "",
              "type": "address"
            }
          ],
          "stateMutability": "view",
          "type": "function"
        },
        {
          "inputs": [
            {
              "internalType": "string",
              "name": "_tokenContract",
              "type": "string"
            }
          ],
          "name": "registerWallet",
          "outputs": [],
          "stateMutability": "payable",
          "type": "function"
        },
        {
          "inputs": [
            {
              "internalType": "string",
              "name": "_tokenContract",
              "type": "string"
            },
            {
              "internalType": "uint256",
              "name": "_amount",
              "type": "uint256"
            }
          ],
          "name": "topupWallet",
          "outputs": [],
          "stateMutability": "nonpayable",
          "type": "function"
        }
      ],
      "evm": {
        "bytecode": {
          "linkReferences": {},
          "object": "608060405234801561001057600080fd5b50336000806101000a81548173ffffffffffffffffffffffffffffffffffffffff021916908373ffffffffffffffffffffffffffffffffffffffff160217905550610d09806100606000396000f3fe60806040526004361061004a5760003560e01c8063052af18b1461004f578063464320b41461008c57806374b6068f146100b55780638da5cb5b146100d1578063e7340913146100fc575b600080fd5b34801561005b57600080fd5b506100766004803603810190610071919061094a565b610139565b6040516100839190610a60565b60405180910390f35b34801561009857600080fd5b506100b360048036038101906100ae919061098b565b610182565b005b6100cf60048036038101906100ca919061094a565b6102a7565b005b3480156100dd57600080fd5b506100e6610709565b6040516100f39190610a45565b60405180910390f35b34801561010857600080fd5b50610123600480360381019061011e919061094a565b61072d565b6040516101309190610a60565b60405180910390f35b60008060098360405161014c9190610a2e565b90815260200160405180910390206000015490506008600082815260200190815260200160002060000160010154915050919050565b60006007836040516101949190610a2e565b908152602001604051809103902060000160000154905060006009846040516101bd9190610a2e565b9081526020016040518091039020600001549050826006600084815260200190815260200160002060000160010160008282546101fa9190610ae7565b92505081905550826009856040516102129190610a2e565b908152602001604051809103902060010160008282546102329190610ae7565b92505081905550826008600083815260200190815260200160002060000160010160008282546102629190610ae7565b925050819055508260098560405161027a9190610a2e565b9081526020016040518091039020600101600082825461029a9190610ae7565b9250508190555050505050565b60006102b36003610779565b905060006102c16004610779565b905081600a60003373ffffffffffffffffffffffffffffffffffffffff1673ffffffffffffffffffffffffffffffffffffffff1681526020019081526020016000206000018190555060016006600084815260200190815260200160002060030160006101000a81548160ff02191690831515021790555081600660008481526020019081526020016000206000016000018190555060006006600084815260200190815260200160002060000160010181905550826006600084815260200190815260200160002060000160020190805190602001906103a392919061079d565b50336006600084815260200190815260200160002060030160016101000a81548173ffffffffffffffffffffffffffffffffffffffff021916908373ffffffffffffffffffffffffffffffffffffffff1602179055506104036003610787565b600660008381526020019081526020016000206007846040516104269190610a2e565b908152602001604051809103902060008201816000016000820154816000015560018201548160010155600282018160020190805461046490610bbb565b61046f929190610823565b5050506003820160009054906101000a900460ff168160030160006101000a81548160ff0219169083151502179055506003820160019054906101000a900473ffffffffffffffffffffffffffffffffffffffff168160030160016101000a81548173ffffffffffffffffffffffffffffffffffffffff021916908373ffffffffffffffffffffffffffffffffffffffff160217905550905050600060078460405161051b9190610a2e565b908152602001604051809103902060000160010181905550826007846040516105449190610a2e565b9081526020016040518091039020600001600201908051906020019061056b92919061079d565b503360078460405161057d9190610a2e565b908152602001604051809103902060030160016101000a81548173ffffffffffffffffffffffffffffffffffffffff021916908373ffffffffffffffffffffffffffffffffffffffff160217905550816008600083815260200190815260200160002060000160000181905550600060086000838152602001908152602001600020600001600101819055508260086000838152602001908152602001600020600001600201908051906020019061063692919061079d565b50306008600083815260200190815260200160002060030160006101000a81548173ffffffffffffffffffffffffffffffffffffffff021916908373ffffffffffffffffffffffffffffffffffffffff1602179055506106966004610787565b604051806060016040528082815260200160008152602001848152506009846040516106c29190610a2e565b90815260200160405180910390206000820151816000015560208201518160010155604082015181600201908051906020019061070092919061079d565b50905050505050565b60008054906101000a900473ffffffffffffffffffffffffffffffffffffffff1681565b6000806007836040516107409190610a2e565b90815260200160405180910390206000016000015490506006600082815260200190815260200160002060000160010154915050919050565b600081600001549050919050565b6001816000016000828254019250508190555050565b8280546107a990610bbb565b90600052602060002090601f0160209004810192826107cb5760008555610812565b82601f106107e457805160ff1916838001178555610812565b82800160010185558215610812579182015b828111156108115782518255916020019190600101906107f6565b5b50905061081f91906108b0565b5090565b82805461082f90610bbb565b90600052602060002090601f016020900481019282610851576000855561089f565b82601f10610862578054855561089f565b8280016001018555821561089f57600052602060002091601f016020900482015b8281111561089e578254825591600101919060010190610883565b5b5090506108ac91906108b0565b5090565b5b808211156108c95760008160009055506001016108b1565b5090565b60006108e06108db84610aa0565b610a7b565b9050828152602081018484840111156108f857600080fd5b610903848285610b79565b509392505050565b600082601f83011261091c57600080fd5b813561092c8482602086016108cd565b91505092915050565b60008135905061094481610cbc565b92915050565b60006020828403121561095c57600080fd5b600082013567ffffffffffffffff81111561097657600080fd5b6109828482850161090b565b91505092915050565b6000806040838503121561099e57600080fd5b600083013567ffffffffffffffff8111156109b857600080fd5b6109c48582860161090b565b92505060206109d585828601610935565b9150509250929050565b6109e881610b3d565b82525050565b60006109f982610ad1565b610a038185610adc565b9350610a13818560208601610b88565b80840191505092915050565b610a2881610b6f565b82525050565b6000610a3a82846109ee565b915081905092915050565b6000602082019050610a5a60008301846109df565b92915050565b6000602082019050610a756000830184610a1f565b92915050565b6000610a85610a96565b9050610a918282610bed565b919050565b6000604051905090565b600067ffffffffffffffff821115610abb57610aba610c7c565b5b610ac482610cab565b9050602081019050919050565b600081519050919050565b600081905092915050565b6000610af282610b6f565b9150610afd83610b6f565b9250827fffffffffffffffffffffffffffffffffffffffffffffffffffffffffffffffff03821115610b3257610b31610c1e565b5b828201905092915050565b6000610b4882610b4f565b9050919050565b600073ffffffffffffffffffffffffffffffffffffffff82169050919050565b6000819050919050565b82818337600083830152505050565b60005b83811015610ba6578082015181840152602081019050610b8b565b83811115610bb5576000848401525b50505050565b60006002820490506001821680610bd357607f821691505b60208210811415610be757610be6610c4d565b5b50919050565b610bf682610cab565b810181811067ffffffffffffffff82111715610c1557610c14610c7c565b5b80604052505050565b7f4e487b7100000000000000000000000000000000000000000000000000000000600052601160045260246000fd5b7f4e487b7100000000000000000000000000000000000000000000000000000000600052602260045260246000fd5b7f4e487b7100000000000000000000000000000000000000000000000000000000600052604160045260246000fd5b6000601f19601f8301169050919050565b610cc581610b6f565b8114610cd057600080fd5b5056fea2646970667358221220a3c75d66b42d1cad599fd34621d9161acbb4a0c47adcdc381502a9c50abf7e8164736f6c63430008040033",
          "opcodes": "PUSH1 0x80 PUSH1 0x40 MSTORE CALLVALUE DUP1 ISZERO PUSH2 0x10 JUMPI PUSH1 0x0 DUP1 REVERT JUMPDEST POP CALLER PUSH1 0x0 DUP1 PUSH2 0x100 EXP DUP2 SLOAD DUP2 PUSH20 0xFFFFFFFFFFFFFFFFFFFFFFFFFFFFFFFFFFFFFFFF MUL NOT AND SWAP1 DUP4 PUSH20 0xFFFFFFFFFFFFFFFFFFFFFFFFFFFFFFFFFFFFFFFF AND MUL OR SWAP1 SSTORE POP PUSH2 0xD09 DUP1 PUSH2 0x60 PUSH1 0x0 CODECOPY PUSH1 0x0 RETURN INVALID PUSH1 0x80 PUSH1 0x40 MSTORE PUSH1 0x4 CALLDATASIZE LT PUSH2 0x4A JUMPI PUSH1 0x0 CALLDATALOAD PUSH1 0xE0 SHR DUP1 PUSH4 0x52AF18B EQ PUSH2 0x4F JUMPI DUP1 PUSH4 0x464320B4 EQ PUSH2 0x8C JUMPI DUP1 PUSH4 0x74B6068F EQ PUSH2 0xB5 JUMPI DUP1 PUSH4 0x8DA5CB5B EQ PUSH2 0xD1 JUMPI DUP1 PUSH4 0xE7340913 EQ PUSH2 0xFC JUMPI JUMPDEST PUSH1 0x0 DUP1 REVERT JUMPDEST CALLVALUE DUP1 ISZERO PUSH2 0x5B JUMPI PUSH1 0x0 DUP1 REVERT JUMPDEST POP PUSH2 0x76 PUSH1 0x4 DUP1 CALLDATASIZE SUB DUP2 ADD SWAP1 PUSH2 0x71 SWAP2 SWAP1 PUSH2 0x94A JUMP JUMPDEST PUSH2 0x139 JUMP JUMPDEST PUSH1 0x40 MLOAD PUSH2 0x83 SWAP2 SWAP1 PUSH2 0xA60 JUMP JUMPDEST PUSH1 0x40 MLOAD DUP1 SWAP2 SUB SWAP1 RETURN JUMPDEST CALLVALUE DUP1 ISZERO PUSH2 0x98 JUMPI PUSH1 0x0 DUP1 REVERT JUMPDEST POP PUSH2 0xB3 PUSH1 0x4 DUP1 CALLDATASIZE SUB DUP2 ADD SWAP1 PUSH2 0xAE SWAP2 SWAP1 PUSH2 0x98B JUMP JUMPDEST PUSH2 0x182 JUMP JUMPDEST STOP JUMPDEST PUSH2 0xCF PUSH1 0x4 DUP1 CALLDATASIZE SUB DUP2 ADD SWAP1 PUSH2 0xCA SWAP2 SWAP1 PUSH2 0x94A JUMP JUMPDEST PUSH2 0x2A7 JUMP JUMPDEST STOP JUMPDEST CALLVALUE DUP1 ISZERO PUSH2 0xDD JUMPI PUSH1 0x0 DUP1 REVERT JUMPDEST POP PUSH2 0xE6 PUSH2 0x709 JUMP JUMPDEST PUSH1 0x40 MLOAD PUSH2 0xF3 SWAP2 SWAP1 PUSH2 0xA45 JUMP JUMPDEST PUSH1 0x40 MLOAD DUP1 SWAP2 SUB SWAP1 RETURN JUMPDEST CALLVALUE DUP1 ISZERO PUSH2 0x108 JUMPI PUSH1 0x0 DUP1 REVERT JUMPDEST POP PUSH2 0x123 PUSH1 0x4 DUP1 CALLDATASIZE SUB DUP2 ADD SWAP1 PUSH2 0x11E SWAP2 SWAP1 PUSH2 0x94A JUMP JUMPDEST PUSH2 0x72D JUMP JUMPDEST PUSH1 0x40 MLOAD PUSH2 0x130 SWAP2 SWAP1 PUSH2 0xA60 JUMP JUMPDEST PUSH1 0x40 MLOAD DUP1 SWAP2 SUB SWAP1 RETURN JUMPDEST PUSH1 0x0 DUP1 PUSH1 0x9 DUP4 PUSH1 0x40 MLOAD PUSH2 0x14C SWAP2 SWAP1 PUSH2 0xA2E JUMP JUMPDEST SWAP1 DUP2 MSTORE PUSH1 0x20 ADD PUSH1 0x40 MLOAD DUP1 SWAP2 SUB SWAP1 KECCAK256 PUSH1 0x0 ADD SLOAD SWAP1 POP PUSH1 0x8 PUSH1 0x0 DUP3 DUP2 MSTORE PUSH1 0x20 ADD SWAP1 DUP2 MSTORE PUSH1 0x20 ADD PUSH1 0x0 KECCAK256 PUSH1 0x0 ADD PUSH1 0x1 ADD SLOAD SWAP2 POP POP SWAP2 SWAP1 POP JUMP JUMPDEST PUSH1 0x0 PUSH1 0x7 DUP4 PUSH1 0x40 MLOAD PUSH2 0x194 SWAP2 SWAP1 PUSH2 0xA2E JUMP JUMPDEST SWAP1 DUP2 MSTORE PUSH1 0x20 ADD PUSH1 0x40 MLOAD DUP1 SWAP2 SUB SWAP1 KECCAK256 PUSH1 0x0 ADD PUSH1 0x0 ADD SLOAD SWAP1 POP PUSH1 0x0 PUSH1 0x9 DUP5 PUSH1 0x40 MLOAD PUSH2 0x1BD SWAP2 SWAP1 PUSH2 0xA2E JUMP JUMPDEST SWAP1 DUP2 MSTORE PUSH1 0x20 ADD PUSH1 0x40 MLOAD DUP1 SWAP2 SUB SWAP1 KECCAK256 PUSH1 0x0 ADD SLOAD SWAP1 POP DUP3 PUSH1 0x6 PUSH1 0x0 DUP5 DUP2 MSTORE PUSH1 0x20 ADD SWAP1 DUP2 MSTORE PUSH1 0x20 ADD PUSH1 0x0 KECCAK256 PUSH1 0x0 ADD PUSH1 0x1 ADD PUSH1 0x0 DUP3 DUP3 SLOAD PUSH2 0x1FA SWAP2 SWAP1 PUSH2 0xAE7 JUMP JUMPDEST SWAP3 POP POP DUP2 SWAP1 SSTORE POP DUP3 PUSH1 0x9 DUP6 PUSH1 0x40 MLOAD PUSH2 0x212 SWAP2 SWAP1 PUSH2 0xA2E JUMP JUMPDEST SWAP1 DUP2 MSTORE PUSH1 0x20 ADD PUSH1 0x40 MLOAD DUP1 SWAP2 SUB SWAP1 KECCAK256 PUSH1 0x1 ADD PUSH1 0x0 DUP3 DUP3 SLOAD PUSH2 0x232 SWAP2 SWAP1 PUSH2 0xAE7 JUMP JUMPDEST SWAP3 POP POP DUP2 SWAP1 SSTORE POP DUP3 PUSH1 0x8 PUSH1 0x0 DUP4 DUP2 MSTORE PUSH1 0x20 ADD SWAP1 DUP2 MSTORE PUSH1 0x20 ADD PUSH1 0x0 KECCAK256 PUSH1 0x0 ADD PUSH1 0x1 ADD PUSH1 0x0 DUP3 DUP3 SLOAD PUSH2 0x262 SWAP2 SWAP1 PUSH2 0xAE7 JUMP JUMPDEST SWAP3 POP POP DUP2 SWAP1 SSTORE POP DUP3 PUSH1 0x9 DUP6 PUSH1 0x40 MLOAD PUSH2 0x27A SWAP2 SWAP1 PUSH2 0xA2E JUMP JUMPDEST SWAP1 DUP2 MSTORE PUSH1 0x20 ADD PUSH1 0x40 MLOAD DUP1 SWAP2 SUB SWAP1 KECCAK256 PUSH1 0x1 ADD PUSH1 0x0 DUP3 DUP3 SLOAD PUSH2 0x29A SWAP2 SWAP1 PUSH2 0xAE7 JUMP JUMPDEST SWAP3 POP POP DUP2 SWAP1 SSTORE POP POP POP POP POP JUMP JUMPDEST PUSH1 0x0 PUSH2 0x2B3 PUSH1 0x3 PUSH2 0x779 JUMP JUMPDEST SWAP1 POP PUSH1 0x0 PUSH2 0x2C1 PUSH1 0x4 PUSH2 0x779 JUMP JUMPDEST SWAP1 POP DUP2 PUSH1 0xA PUSH1 0x0 CALLER PUSH20 0xFFFFFFFFFFFFFFFFFFFFFFFFFFFFFFFFFFFFFFFF AND PUSH20 0xFFFFFFFFFFFFFFFFFFFFFFFFFFFFFFFFFFFFFFFF AND DUP2 MSTORE PUSH1 0x20 ADD SWAP1 DUP2 MSTORE PUSH1 0x20 ADD PUSH1 0x0 KECCAK256 PUSH1 0x0 ADD DUP2 SWAP1 SSTORE POP PUSH1 0x1 PUSH1 0x6 PUSH1 0x0 DUP5 DUP2 MSTORE PUSH1 0x20 ADD SWAP1 DUP2 MSTORE PUSH1 0x20 ADD PUSH1 0x0 KECCAK256 PUSH1 0x3 ADD PUSH1 0x0 PUSH2 0x100 EXP DUP2 SLOAD DUP2 PUSH1 0xFF MUL NOT AND SWAP1 DUP4 ISZERO ISZERO MUL OR SWAP1 SSTORE POP DUP2 PUSH1 0x6 PUSH1 0x0 DUP5 DUP2 MSTORE PUSH1 0x20 ADD SWAP1 DUP2 MSTORE PUSH1 0x20 ADD PUSH1 0x0 KECCAK256 PUSH1 0x0 ADD PUSH1 0x0 ADD DUP2 SWAP1 SSTORE POP PUSH1 0x0 PUSH1 0x6 PUSH1 0x0 DUP5 DUP2 MSTORE PUSH1 0x20 ADD SWAP1 DUP2 MSTORE PUSH1 0x20 ADD PUSH1 0x0 KECCAK256 PUSH1 0x0 ADD PUSH1 0x1 ADD DUP2 SWAP1 SSTORE POP DUP3 PUSH1 0x6 PUSH1 0x0 DUP5 DUP2 MSTORE PUSH1 0x20 ADD SWAP1 DUP2 MSTORE PUSH1 0x20 ADD PUSH1 0x0 KECCAK256 PUSH1 0x0 ADD PUSH1 0x2 ADD SWAP1 DUP1 MLOAD SWAP1 PUSH1 0x20 ADD SWAP1 PUSH2 0x3A3 SWAP3 SWAP2 SWAP1 PUSH2 0x79D JUMP JUMPDEST POP CALLER PUSH1 0x6 PUSH1 0x0 DUP5 DUP2 MSTORE PUSH1 0x20 ADD SWAP1 DUP2 MSTORE PUSH1 0x20 ADD PUSH1 0x0 KECCAK256 PUSH1 0x3 ADD PUSH1 0x1 PUSH2 0x100 EXP DUP2 SLOAD DUP2 PUSH20 0xFFFFFFFFFFFFFFFFFFFFFFFFFFFFFFFFFFFFFFFF MUL NOT AND SWAP1 DUP4 PUSH20 0xFFFFFFFFFFFFFFFFFFFFFFFFFFFFFFFFFFFFFFFF AND MUL OR SWAP1 SSTORE POP PUSH2 0x403 PUSH1 0x3 PUSH2 0x787 JUMP JUMPDEST PUSH1 0x6 PUSH1 0x0 DUP4 DUP2 MSTORE PUSH1 0x20 ADD SWAP1 DUP2 MSTORE PUSH1 0x20 ADD PUSH1 0x0 KECCAK256 PUSH1 0x7 DUP5 PUSH1 0x40 MLOAD PUSH2 0x426 SWAP2 SWAP1 PUSH2 0xA2E JUMP JUMPDEST SWAP1 DUP2 MSTORE PUSH1 0x20 ADD PUSH1 0x40 MLOAD DUP1 SWAP2 SUB SWAP1 KECCAK256 PUSH1 0x0 DUP3 ADD DUP2 PUSH1 0x0 ADD PUSH1 0x0 DUP3 ADD SLOAD DUP2 PUSH1 0x0 ADD SSTORE PUSH1 0x1 DUP3 ADD SLOAD DUP2 PUSH1 0x1 ADD SSTORE PUSH1 0x2 DUP3 ADD DUP2 PUSH1 0x2 ADD SWAP1 DUP1 SLOAD PUSH2 0x464 SWAP1 PUSH2 0xBBB JUMP JUMPDEST PUSH2 0x46F SWAP3 SWAP2 SWAP1 PUSH2 0x823 JUMP JUMPDEST POP POP POP PUSH1 0x3 DUP3 ADD PUSH1 0x0 SWAP1 SLOAD SWAP1 PUSH2 0x100 EXP SWAP1 DIV PUSH1 0xFF AND DUP2 PUSH1 0x3 ADD PUSH1 0x0 PUSH2 0x100 EXP DUP2 SLOAD DUP2 PUSH1 0xFF MUL NOT AND SWAP1 DUP4 ISZERO ISZERO MUL OR SWAP1 SSTORE POP PUSH1 0x3 DUP3 ADD PUSH1 0x1 SWAP1 SLOAD SWAP1 PUSH2 0x100 EXP SWAP1 DIV PUSH20 0xFFFFFFFFFFFFFFFFFFFFFFFFFFFFFFFFFFFFFFFF AND DUP2 PUSH1 0x3 ADD PUSH1 0x1 PUSH2 0x100 EXP DUP2 SLOAD DUP2 PUSH20 0xFFFFFFFFFFFFFFFFFFFFFFFFFFFFFFFFFFFFFFFF MUL NOT AND SWAP1 DUP4 PUSH20 0xFFFFFFFFFFFFFFFFFFFFFFFFFFFFFFFFFFFFFFFF AND MUL OR SWAP1 SSTORE POP SWAP1 POP POP PUSH1 0x0 PUSH1 0x7 DUP5 PUSH1 0x40 MLOAD PUSH2 0x51B SWAP2 SWAP1 PUSH2 0xA2E JUMP JUMPDEST SWAP1 DUP2 MSTORE PUSH1 0x20 ADD PUSH1 0x40 MLOAD DUP1 SWAP2 SUB SWAP1 KECCAK256 PUSH1 0x0 ADD PUSH1 0x1 ADD DUP2 SWAP1 SSTORE POP DUP3 PUSH1 0x7 DUP5 PUSH1 0x40 MLOAD PUSH2 0x544 SWAP2 SWAP1 PUSH2 0xA2E JUMP JUMPDEST SWAP1 DUP2 MSTORE PUSH1 0x20 ADD PUSH1 0x40 MLOAD DUP1 SWAP2 SUB SWAP1 KECCAK256 PUSH1 0x0 ADD PUSH1 0x2 ADD SWAP1 DUP1 MLOAD SWAP1 PUSH1 0x20 ADD SWAP1 PUSH2 0x56B SWAP3 SWAP2 SWAP1 PUSH2 0x79D JUMP JUMPDEST POP CALLER PUSH1 0x7 DUP5 PUSH1 0x40 MLOAD PUSH2 0x57D SWAP2 SWAP1 PUSH2 0xA2E JUMP JUMPDEST SWAP1 DUP2 MSTORE PUSH1 0x20 ADD PUSH1 0x40 MLOAD DUP1 SWAP2 SUB SWAP1 KECCAK256 PUSH1 0x3 ADD PUSH1 0x1 PUSH2 0x100 EXP DUP2 SLOAD DUP2 PUSH20 0xFFFFFFFFFFFFFFFFFFFFFFFFFFFFFFFFFFFFFFFF MUL NOT AND SWAP1 DUP4 PUSH20 0xFFFFFFFFFFFFFFFFFFFFFFFFFFFFFFFFFFFFFFFF AND MUL OR SWAP1 SSTORE POP DUP2 PUSH1 0x8 PUSH1 0x0 DUP4 DUP2 MSTORE PUSH1 0x20 ADD SWAP1 DUP2 MSTORE PUSH1 0x20 ADD PUSH1 0x0 KECCAK256 PUSH1 0x0 ADD PUSH1 0x0 ADD DUP2 SWAP1 SSTORE POP PUSH1 0x0 PUSH1 0x8 PUSH1 0x0 DUP4 DUP2 MSTORE PUSH1 0x20 ADD SWAP1 DUP2 MSTORE PUSH1 0x20 ADD PUSH1 0x0 KECCAK256 PUSH1 0x0 ADD PUSH1 0x1 ADD DUP2 SWAP1 SSTORE POP DUP3 PUSH1 0x8 PUSH1 0x0 DUP4 DUP2 MSTORE PUSH1 0x20 ADD SWAP1 DUP2 MSTORE PUSH1 0x20 ADD PUSH1 0x0 KECCAK256 PUSH1 0x0 ADD PUSH1 0x2 ADD SWAP1 DUP1 MLOAD SWAP1 PUSH1 0x20 ADD SWAP1 PUSH2 0x636 SWAP3 SWAP2 SWAP1 PUSH2 0x79D JUMP JUMPDEST POP ADDRESS PUSH1 0x8 PUSH1 0x0 DUP4 DUP2 MSTORE PUSH1 0x20 ADD SWAP1 DUP2 MSTORE PUSH1 0x20 ADD PUSH1 0x0 KECCAK256 PUSH1 0x3 ADD PUSH1 0x0 PUSH2 0x100 EXP DUP2 SLOAD DUP2 PUSH20 0xFFFFFFFFFFFFFFFFFFFFFFFFFFFFFFFFFFFFFFFF MUL NOT AND SWAP1 DUP4 PUSH20 0xFFFFFFFFFFFFFFFFFFFFFFFFFFFFFFFFFFFFFFFF AND MUL OR SWAP1 SSTORE POP PUSH2 0x696 PUSH1 0x4 PUSH2 0x787 JUMP JUMPDEST PUSH1 0x40 MLOAD DUP1 PUSH1 0x60 ADD PUSH1 0x40 MSTORE DUP1 DUP3 DUP2 MSTORE PUSH1 0x20 ADD PUSH1 0x0 DUP2 MSTORE PUSH1 0x20 ADD DUP5 DUP2 MSTORE POP PUSH1 0x9 DUP5 PUSH1 0x40 MLOAD PUSH2 0x6C2 SWAP2 SWAP1 PUSH2 0xA2E JUMP JUMPDEST SWAP1 DUP2 MSTORE PUSH1 0x20 ADD PUSH1 0x40 MLOAD DUP1 SWAP2 SUB SWAP1 KECCAK256 PUSH1 0x0 DUP3 ADD MLOAD DUP2 PUSH1 0x0 ADD SSTORE PUSH1 0x20 DUP3 ADD MLOAD DUP2 PUSH1 0x1 ADD SSTORE PUSH1 0x40 DUP3 ADD MLOAD DUP2 PUSH1 0x2 ADD SWAP1 DUP1 MLOAD SWAP1 PUSH1 0x20 ADD SWAP1 PUSH2 0x700 SWAP3 SWAP2 SWAP1 PUSH2 0x79D JUMP JUMPDEST POP SWAP1 POP POP POP POP POP JUMP JUMPDEST PUSH1 0x0 DUP1 SLOAD SWAP1 PUSH2 0x100 EXP SWAP1 DIV PUSH20 0xFFFFFFFFFFFFFFFFFFFFFFFFFFFFFFFFFFFFFFFF AND DUP2 JUMP JUMPDEST PUSH1 0x0 DUP1 PUSH1 0x7 DUP4 PUSH1 0x40 MLOAD PUSH2 0x740 SWAP2 SWAP1 PUSH2 0xA2E JUMP JUMPDEST SWAP1 DUP2 MSTORE PUSH1 0x20 ADD PUSH1 0x40 MLOAD DUP1 SWAP2 SUB SWAP1 KECCAK256 PUSH1 0x0 ADD PUSH1 0x0 ADD SLOAD SWAP1 POP PUSH1 0x6 PUSH1 0x0 DUP3 DUP2 MSTORE PUSH1 0x20 ADD SWAP1 DUP2 MSTORE PUSH1 0x20 ADD PUSH1 0x0 KECCAK256 PUSH1 0x0 ADD PUSH1 0x1 ADD SLOAD SWAP2 POP POP SWAP2 SWAP1 POP JUMP JUMPDEST PUSH1 0x0 DUP2 PUSH1 0x0 ADD SLOAD SWAP1 POP SWAP2 SWAP1 POP JUMP JUMPDEST PUSH1 0x1 DUP2 PUSH1 0x0 ADD PUSH1 0x0 DUP3 DUP3 SLOAD ADD SWAP3 POP POP DUP2 SWAP1 SSTORE POP POP JUMP JUMPDEST DUP3 DUP1 SLOAD PUSH2 0x7A9 SWAP1 PUSH2 0xBBB JUMP JUMPDEST SWAP1 PUSH1 0x0 MSTORE PUSH1 0x20 PUSH1 0x0 KECCAK256 SWAP1 PUSH1 0x1F ADD PUSH1 0x20 SWAP1 DIV DUP2 ADD SWAP3 DUP3 PUSH2 0x7CB JUMPI PUSH1 0x0 DUP6 SSTORE PUSH2 0x812 JUMP JUMPDEST DUP3 PUSH1 0x1F LT PUSH2 0x7E4 JUMPI DUP1 MLOAD PUSH1 0xFF NOT AND DUP4 DUP1 ADD OR DUP6 SSTORE PUSH2 0x812 JUMP JUMPDEST DUP3 DUP1 ADD PUSH1 0x1 ADD DUP6 SSTORE DUP3 ISZERO PUSH2 0x812 JUMPI SWAP2 DUP3 ADD JUMPDEST DUP3 DUP2 GT ISZERO PUSH2 0x811 JUMPI DUP3 MLOAD DUP3 SSTORE SWAP2 PUSH1 0x20 ADD SWAP2 SWAP1 PUSH1 0x1 ADD SWAP1 PUSH2 0x7F6 JUMP JUMPDEST JUMPDEST POP SWAP1 POP PUSH2 0x81F SWAP2 SWAP1 PUSH2 0x8B0 JUMP JUMPDEST POP SWAP1 JUMP JUMPDEST DUP3 DUP1 SLOAD PUSH2 0x82F SWAP1 PUSH2 0xBBB JUMP JUMPDEST SWAP1 PUSH1 0x0 MSTORE PUSH1 0x20 PUSH1 0x0 KECCAK256 SWAP1 PUSH1 0x1F ADD PUSH1 0x20 SWAP1 DIV DUP2 ADD SWAP3 DUP3 PUSH2 0x851 JUMPI PUSH1 0x0 DUP6 SSTORE PUSH2 0x89F JUMP JUMPDEST DUP3 PUSH1 0x1F LT PUSH2 0x862 JUMPI DUP1 SLOAD DUP6 SSTORE PUSH2 0x89F JUMP JUMPDEST DUP3 DUP1 ADD PUSH1 0x1 ADD DUP6 SSTORE DUP3 ISZERO PUSH2 0x89F JUMPI PUSH1 0x0 MSTORE PUSH1 0x20 PUSH1 0x0 KECCAK256 SWAP2 PUSH1 0x1F ADD PUSH1 0x20 SWAP1 DIV DUP3 ADD JUMPDEST DUP3 DUP2 GT ISZERO PUSH2 0x89E JUMPI DUP3 SLOAD DUP3 SSTORE SWAP2 PUSH1 0x1 ADD SWAP2 SWAP1 PUSH1 0x1 ADD SWAP1 PUSH2 0x883 JUMP JUMPDEST JUMPDEST POP SWAP1 POP PUSH2 0x8AC SWAP2 SWAP1 PUSH2 0x8B0 JUMP JUMPDEST POP SWAP1 JUMP JUMPDEST JUMPDEST DUP1 DUP3 GT ISZERO PUSH2 0x8C9 JUMPI PUSH1 0x0 DUP2 PUSH1 0x0 SWAP1 SSTORE POP PUSH1 0x1 ADD PUSH2 0x8B1 JUMP JUMPDEST POP SWAP1 JUMP JUMPDEST PUSH1 0x0 PUSH2 0x8E0 PUSH2 0x8DB DUP5 PUSH2 0xAA0 JUMP JUMPDEST PUSH2 0xA7B JUMP JUMPDEST SWAP1 POP DUP3 DUP2 MSTORE PUSH1 0x20 DUP2 ADD DUP5 DUP5 DUP5 ADD GT ISZERO PUSH2 0x8F8 JUMPI PUSH1 0x0 DUP1 REVERT JUMPDEST PUSH2 0x903 DUP5 DUP3 DUP6 PUSH2 0xB79 JUMP JUMPDEST POP SWAP4 SWAP3 POP POP POP JUMP JUMPDEST PUSH1 0x0 DUP3 PUSH1 0x1F DUP4 ADD SLT PUSH2 0x91C JUMPI PUSH1 0x0 DUP1 REVERT JUMPDEST DUP2 CALLDATALOAD PUSH2 0x92C DUP5 DUP3 PUSH1 0x20 DUP7 ADD PUSH2 0x8CD JUMP JUMPDEST SWAP2 POP POP SWAP3 SWAP2 POP POP JUMP JUMPDEST PUSH1 0x0 DUP2 CALLDATALOAD SWAP1 POP PUSH2 0x944 DUP2 PUSH2 0xCBC JUMP JUMPDEST SWAP3 SWAP2 POP POP JUMP JUMPDEST PUSH1 0x0 PUSH1 0x20 DUP3 DUP5 SUB SLT ISZERO PUSH2 0x95C JUMPI PUSH1 0x0 DUP1 REVERT JUMPDEST PUSH1 0x0 DUP3 ADD CALLDATALOAD PUSH8 0xFFFFFFFFFFFFFFFF DUP2 GT ISZERO PUSH2 0x976 JUMPI PUSH1 0x0 DUP1 REVERT JUMPDEST PUSH2 0x982 DUP5 DUP3 DUP6 ADD PUSH2 0x90B JUMP JUMPDEST SWAP2 POP POP SWAP3 SWAP2 POP POP JUMP JUMPDEST PUSH1 0x0 DUP1 PUSH1 0x40 DUP4 DUP6 SUB SLT ISZERO PUSH2 0x99E JUMPI PUSH1 0x0 DUP1 REVERT JUMPDEST PUSH1 0x0 DUP4 ADD CALLDATALOAD PUSH8 0xFFFFFFFFFFFFFFFF DUP2 GT ISZERO PUSH2 0x9B8 JUMPI PUSH1 0x0 DUP1 REVERT JUMPDEST PUSH2 0x9C4 DUP6 DUP3 DUP7 ADD PUSH2 0x90B JUMP JUMPDEST SWAP3 POP POP PUSH1 0x20 PUSH2 0x9D5 DUP6 DUP3 DUP7 ADD PUSH2 0x935 JUMP JUMPDEST SWAP2 POP POP SWAP3 POP SWAP3 SWAP1 POP JUMP JUMPDEST PUSH2 0x9E8 DUP2 PUSH2 0xB3D JUMP JUMPDEST DUP3 MSTORE POP POP JUMP JUMPDEST PUSH1 0x0 PUSH2 0x9F9 DUP3 PUSH2 0xAD1 JUMP JUMPDEST PUSH2 0xA03 DUP2 DUP6 PUSH2 0xADC JUMP JUMPDEST SWAP4 POP PUSH2 0xA13 DUP2 DUP6 PUSH1 0x20 DUP7 ADD PUSH2 0xB88 JUMP JUMPDEST DUP1 DUP5 ADD SWAP2 POP POP SWAP3 SWAP2 POP POP JUMP JUMPDEST PUSH2 0xA28 DUP2 PUSH2 0xB6F JUMP JUMPDEST DUP3 MSTORE POP POP JUMP JUMPDEST PUSH1 0x0 PUSH2 0xA3A DUP3 DUP5 PUSH2 0x9EE JUMP JUMPDEST SWAP2 POP DUP2 SWAP1 POP SWAP3 SWAP2 POP POP JUMP JUMPDEST PUSH1 0x0 PUSH1 0x20 DUP3 ADD SWAP1 POP PUSH2 0xA5A PUSH1 0x0 DUP4 ADD DUP5 PUSH2 0x9DF JUMP JUMPDEST SWAP3 SWAP2 POP POP JUMP JUMPDEST PUSH1 0x0 PUSH1 0x20 DUP3 ADD SWAP1 POP PUSH2 0xA75 PUSH1 0x0 DUP4 ADD DUP5 PUSH2 0xA1F JUMP JUMPDEST SWAP3 SWAP2 POP POP JUMP JUMPDEST PUSH1 0x0 PUSH2 0xA85 PUSH2 0xA96 JUMP JUMPDEST SWAP1 POP PUSH2 0xA91 DUP3 DUP3 PUSH2 0xBED JUMP JUMPDEST SWAP2 SWAP1 POP JUMP JUMPDEST PUSH1 0x0 PUSH1 0x40 MLOAD SWAP1 POP SWAP1 JUMP JUMPDEST PUSH1 0x0 PUSH8 0xFFFFFFFFFFFFFFFF DUP3 GT ISZERO PUSH2 0xABB JUMPI PUSH2 0xABA PUSH2 0xC7C JUMP JUMPDEST JUMPDEST PUSH2 0xAC4 DUP3 PUSH2 0xCAB JUMP JUMPDEST SWAP1 POP PUSH1 0x20 DUP2 ADD SWAP1 POP SWAP2 SWAP1 POP JUMP JUMPDEST PUSH1 0x0 DUP2 MLOAD SWAP1 POP SWAP2 SWAP1 POP JUMP JUMPDEST PUSH1 0x0 DUP2 SWAP1 POP SWAP3 SWAP2 POP POP JUMP JUMPDEST PUSH1 0x0 PUSH2 0xAF2 DUP3 PUSH2 0xB6F JUMP JUMPDEST SWAP2 POP PUSH2 0xAFD DUP4 PUSH2 0xB6F JUMP JUMPDEST SWAP3 POP DUP3 PUSH32 0xFFFFFFFFFFFFFFFFFFFFFFFFFFFFFFFFFFFFFFFFFFFFFFFFFFFFFFFFFFFFFFFF SUB DUP3 GT ISZERO PUSH2 0xB32 JUMPI PUSH2 0xB31 PUSH2 0xC1E JUMP JUMPDEST JUMPDEST DUP3 DUP3 ADD SWAP1 POP SWAP3 SWAP2 POP POP JUMP JUMPDEST PUSH1 0x0 PUSH2 0xB48 DUP3 PUSH2 0xB4F JUMP JUMPDEST SWAP1 POP SWAP2 SWAP1 POP JUMP JUMPDEST PUSH1 0x0 PUSH20 0xFFFFFFFFFFFFFFFFFFFFFFFFFFFFFFFFFFFFFFFF DUP3 AND SWAP1 POP SWAP2 SWAP1 POP JUMP JUMPDEST PUSH1 0x0 DUP2 SWAP1 POP SWAP2 SWAP1 POP JUMP JUMPDEST DUP3 DUP2 DUP4 CALLDATACOPY PUSH1 0x0 DUP4 DUP4 ADD MSTORE POP POP POP JUMP JUMPDEST PUSH1 0x0 JUMPDEST DUP4 DUP2 LT ISZERO PUSH2 0xBA6 JUMPI DUP1 DUP3 ADD MLOAD DUP2 DUP5 ADD MSTORE PUSH1 0x20 DUP2 ADD SWAP1 POP PUSH2 0xB8B JUMP JUMPDEST DUP4 DUP2 GT ISZERO PUSH2 0xBB5 JUMPI PUSH1 0x0 DUP5 DUP5 ADD MSTORE JUMPDEST POP POP POP POP JUMP JUMPDEST PUSH1 0x0 PUSH1 0x2 DUP3 DIV SWAP1 POP PUSH1 0x1 DUP3 AND DUP1 PUSH2 0xBD3 JUMPI PUSH1 0x7F DUP3 AND SWAP2 POP JUMPDEST PUSH1 0x20 DUP3 LT DUP2 EQ ISZERO PUSH2 0xBE7 JUMPI PUSH2 0xBE6 PUSH2 0xC4D JUMP JUMPDEST JUMPDEST POP SWAP2 SWAP1 POP JUMP JUMPDEST PUSH2 0xBF6 DUP3 PUSH2 0xCAB JUMP JUMPDEST DUP2 ADD DUP2 DUP2 LT PUSH8 0xFFFFFFFFFFFFFFFF DUP3 GT OR ISZERO PUSH2 0xC15 JUMPI PUSH2 0xC14 PUSH2 0xC7C JUMP JUMPDEST JUMPDEST DUP1 PUSH1 0x40 MSTORE POP POP POP JUMP JUMPDEST PUSH32 0x4E487B7100000000000000000000000000000000000000000000000000000000 PUSH1 0x0 MSTORE PUSH1 0x11 PUSH1 0x4 MSTORE PUSH1 0x24 PUSH1 0x0 REVERT JUMPDEST PUSH32 0x4E487B7100000000000000000000000000000000000000000000000000000000 PUSH1 0x0 MSTORE PUSH1 0x22 PUSH1 0x4 MSTORE PUSH1 0x24 PUSH1 0x0 REVERT JUMPDEST PUSH32 0x4E487B7100000000000000000000000000000000000000000000000000000000 PUSH1 0x0 MSTORE PUSH1 0x41 PUSH1 0x4 MSTORE PUSH1 0x24 PUSH1 0x0 REVERT JUMPDEST PUSH1 0x0 PUSH1 0x1F NOT PUSH1 0x1F DUP4 ADD AND SWAP1 POP SWAP2 SWAP1 POP JUMP JUMPDEST PUSH2 0xCC5 DUP2 PUSH2 0xB6F JUMP JUMPDEST DUP2 EQ PUSH2 0xCD0 JUMPI PUSH1 0x0 DUP1 REVERT JUMPDEST POP JUMP INVALID LOG2 PUSH5 0x6970667358 0x22 SLT KECCAK256 LOG3 0xC7 0x5D PUSH7 0xB42D1CAD599FD3 CHAINID 0x21 0xD9 AND BYTE 0xCB 0xB4 LOG0 0xC4 PUSH27 0xDCDC381502A9C50ABF7E8164736F6C634300080400330000000000 "
        },
        "methodIdentifiers": {
          "getGlobalWalletBalance(string)": "052af18b",
          "getMyWalletBalance(string)": "e7340913",
          "owner()": "8da5cb5b",
          "registerWallet(string)": "74b6068f",
          "topupWallet(string,uint256)": "464320b4"
        }
      },
      "storageLayout": {
        "storage": [
          {
            "astId": 674,
            "contract": "contracts/PoropAja.sol:PoropAja",
            "label": "owner",
            "offset": 0,
            "slot": "0",
            "type": "t_address"
          },
          {
            "astId": 677,
            "contract": "contracts/PoropAja.sol:PoropAja",
            "label": "_bid",
            "offset": 0,
            "slot": "1",
            "type": "t_struct(Counter)556_storage"
          },
          {
            "astId": 680,
            "contract": "contracts/PoropAja.sol:PoropAja",
            "label": "_ask",
            "offset": 0,
            "slot": "2",
            "type": "t_struct(Counter)556_storage"
          },
          {
            "astId": 683,
            "contract": "contracts/PoropAja.sol:PoropAja",
            "label": "_wallet",
            "offset": 0,
            "slot": "3",
            "type": "t_struct(Counter)556_storage"
          },
          {
            "astId": 686,
            "contract": "contracts/PoropAja.sol:PoropAja",
            "label": "_globalWallet",
            "offset": 0,
            "slot": "4",
            "type": "t_struct(Counter)556_storage"
          },
          {
            "astId": 691,
            "contract": "contracts/PoropAja.sol:PoropAja",
            "label": "_idMarketTokens",
            "offset": 0,
            "slot": "5",
            "type": "t_mapping(t_uint256,t_struct(MarketToken)668_storage)"
          },
          {
            "astId": 696,
            "contract": "contracts/PoropAja.sol:PoropAja",
            "label": "_idWallets",
            "offset": 0,
            "slot": "6",
            "type": "t_mapping(t_uint256,t_struct(Wallet)653_storage)"
          },
          {
            "astId": 701,
            "contract": "contracts/PoropAja.sol:PoropAja",
            "label": "_addresToBlance",
            "offset": 0,
            "slot": "7",
            "type": "t_mapping(t_string_memory_ptr,t_struct(Wallet)653_storage)"
          },
          {
            "astId": 706,
            "contract": "contracts/PoropAja.sol:PoropAja",
            "label": "_globalWallets",
            "offset": 0,
            "slot": "8",
            "type": "t_mapping(t_uint256,t_struct(GlobalWallet)642_storage)"
          },
          {
            "astId": 711,
            "contract": "contracts/PoropAja.sol:PoropAja",
            "label": "_idTokens",
            "offset": 0,
            "slot": "9",
            "type": "t_mapping(t_string_memory_ptr,t_struct(Token)636_storage)"
          },
          {
            "astId": 716,
            "contract": "contracts/PoropAja.sol:PoropAja",
            "label": "_idUsers",
            "offset": 0,
            "slot": "10",
            "type": "t_mapping(t_address,t_struct(User)645_storage)"
          }
        ],
        "types": {
          "t_address": {
            "encoding": "inplace",
            "label": "address",
            "numberOfBytes": "20"
          },
          "t_bool": {
            "encoding": "inplace",
            "label": "bool",
            "numberOfBytes": "1"
          },
          "t_mapping(t_address,t_struct(User)645_storage)": {
            "encoding": "mapping",
            "key": "t_address",
            "label": "mapping(address => struct User)",
            "numberOfBytes": "32",
            "value": "t_struct(User)645_storage"
          },
          "t_mapping(t_string_memory_ptr,t_struct(Token)636_storage)": {
            "encoding": "mapping",
            "key": "t_string_memory_ptr",
            "label": "mapping(string => struct Token)",
            "numberOfBytes": "32",
            "value": "t_struct(Token)636_storage"
          },
          "t_mapping(t_string_memory_ptr,t_struct(Wallet)653_storage)": {
            "encoding": "mapping",
            "key": "t_string_memory_ptr",
            "label": "mapping(string => struct Wallet)",
            "numberOfBytes": "32",
            "value": "t_struct(Wallet)653_storage"
          },
          "t_mapping(t_uint256,t_struct(GlobalWallet)642_storage)": {
            "encoding": "mapping",
            "key": "t_uint256",
            "label": "mapping(uint256 => struct GlobalWallet)",
            "numberOfBytes": "32",
            "value": "t_struct(GlobalWallet)642_storage"
          },
          "t_mapping(t_uint256,t_struct(MarketToken)668_storage)": {
            "encoding": "mapping",
            "key": "t_uint256",
            "label": "mapping(uint256 => struct MarketToken)",
            "numberOfBytes": "32",
            "value": "t_struct(MarketToken)668_storage"
          },
          "t_mapping(t_uint256,t_struct(Wallet)653_storage)": {
            "encoding": "mapping",
            "key": "t_uint256",
            "label": "mapping(uint256 => struct Wallet)",
            "numberOfBytes": "32",
            "value": "t_struct(Wallet)653_storage"
          },
          "t_string_memory_ptr": {
            "encoding": "bytes",
            "label": "string",
            "numberOfBytes": "32"
          },
          "t_string_storage": {
            "encoding": "bytes",
            "label": "string",
            "numberOfBytes": "32"
          },
          "t_struct(Counter)556_storage": {
            "encoding": "inplace",
            "label": "struct Counters.Counter",
            "members": [
              {
                "astId": 555,
                "contract": "contracts/PoropAja.sol:PoropAja",
                "label": "_value",
                "offset": 0,
                "slot": "0",
                "type": "t_uint256"
              }
            ],
            "numberOfBytes": "32"
          },
          "t_struct(GlobalWallet)642_storage": {
            "encoding": "inplace",
            "label": "struct GlobalWallet",
            "members": [
              {
                "astId": 639,
                "contract": "contracts/PoropAja.sol:PoropAja",
                "label": "token",
                "offset": 0,
                "slot": "0",
                "type": "t_struct(Token)636_storage"
              },
              {
                "astId": 641,
                "contract": "contracts/PoropAja.sol:PoropAja",
                "label": "owner",
                "offset": 0,
                "slot": "3",
                "type": "t_address"
              }
            ],
            "numberOfBytes": "128"
          },
          "t_struct(MarketToken)668_storage": {
            "encoding": "inplace",
            "label": "struct MarketToken",
            "members": [
              {
                "astId": 655,
                "contract": "contracts/PoropAja.sol:PoropAja",
                "label": "id",
                "offset": 0,
                "slot": "0",
                "type": "t_uint256"
              },
              {
                "astId": 657,
                "contract": "contracts/PoropAja.sol:PoropAja",
                "label": "price",
                "offset": 0,
                "slot": "1",
                "type": "t_uint256"
              },
              {
                "astId": 659,
                "contract": "contracts/PoropAja.sol:PoropAja",
                "label": "total",
                "offset": 0,
                "slot": "2",
                "type": "t_uint256"
              },
              {
                "astId": 661,
                "contract": "contracts/PoropAja.sol:PoropAja",
                "label": "tokenContract",
                "offset": 0,
                "slot": "3",
                "type": "t_address"
              },
              {
                "astId": 663,
                "contract": "contracts/PoropAja.sol:PoropAja",
                "label": "tokenExchange",
                "offset": 0,
                "slot": "4",
                "type": "t_address"
              },
              {
                "astId": 665,
                "contract": "contracts/PoropAja.sol:PoropAja",
                "label": "seller",
                "offset": 0,
                "slot": "5",
                "type": "t_address"
              },
              {
                "astId": 667,
                "contract": "contracts/PoropAja.sol:PoropAja",
                "label": "owner",
                "offset": 0,
                "slot": "6",
                "type": "t_address"
              }
            ],
            "numberOfBytes": "224"
          },
          "t_struct(Token)636_storage": {
            "encoding": "inplace",
            "label": "struct Token",
            "members": [
              {
                "astId": 631,
                "contract": "contracts/PoropAja.sol:PoropAja",
                "label": "id",
                "offset": 0,
                "slot": "0",
                "type": "t_uint256"
              },
              {
                "astId": 633,
                "contract": "contracts/PoropAja.sol:PoropAja",
                "label": "balance",
                "offset": 0,
                "slot": "1",
                "type": "t_uint256"
              },
              {
                "astId": 635,
                "contract": "contracts/PoropAja.sol:PoropAja",
                "label": "contractToken",
                "offset": 0,
                "slot": "2",
                "type": "t_string_storage"
              }
            ],
            "numberOfBytes": "96"
          },
          "t_struct(User)645_storage": {
            "encoding": "inplace",
            "label": "struct User",
            "members": [
              {
                "astId": 644,
                "contract": "contracts/PoropAja.sol:PoropAja",
                "label": "indexPoint",
                "offset": 0,
                "slot": "0",
                "type": "t_uint256"
              }
            ],
            "numberOfBytes": "32"
          },
          "t_struct(Wallet)653_storage": {
            "encoding": "inplace",
            "label": "struct Wallet",
            "members": [
              {
                "astId": 648,
                "contract": "contracts/PoropAja.sol:PoropAja",
                "label": "token",
                "offset": 0,
                "slot": "0",
                "type": "t_struct(Token)636_storage"
              },
              {
                "astId": 650,
                "contract": "contracts/PoropAja.sol:PoropAja",
                "label": "isRegistered",
                "offset": 0,
                "slot": "3",
                "type": "t_bool"
              },
              {
                "astId": 652,
                "contract": "contracts/PoropAja.sol:PoropAja",
                "label": "owner",
                "offset": 1,
                "slot": "3",
                "type": "t_address"
              }
            ],
            "numberOfBytes": "128"
          },
          "t_uint256": {
            "encoding": "inplace",
            "label": "uint256",
            "numberOfBytes": "32"
          }
        }
      }
    }
  }
}