{
  "_format": "hh-sol-artifact-1",
  "contractName": "PoropAja",
  "sourceName": "contracts/PoropAja.sol",
  "abi": [
    {
      "inputs": [],
      "stateMutability": "nonpayable",
      "type": "constructor"
    },
    {
      "anonymous": false,
      "inputs": [
        {
          "indexed": false,
          "internalType": "uint256",
          "name": "id",
          "type": "uint256"
        },
        {
          "indexed": false,
          "internalType": "uint256",
          "name": "price",
          "type": "uint256"
        },
        {
          "indexed": false,
          "internalType": "uint256",
          "name": "amount",
          "type": "uint256"
        },
        {
          "indexed": false,
          "internalType": "address",
          "name": "seller",
          "type": "address"
        },
        {
          "indexed": false,
          "internalType": "address",
          "name": "owner",
          "type": "address"
        }
      ],
      "name": "Ask",
      "type": "event"
    },
    {
      "anonymous": false,
      "inputs": [
        {
          "indexed": false,
          "internalType": "uint256",
          "name": "id",
          "type": "uint256"
        },
        {
          "indexed": false,
          "internalType": "uint256",
          "name": "price",
          "type": "uint256"
        },
        {
          "indexed": false,
          "internalType": "uint256",
          "name": "amount",
          "type": "uint256"
        },
        {
          "indexed": false,
          "internalType": "address",
          "name": "seller",
          "type": "address"
        },
        {
          "indexed": false,
          "internalType": "address",
          "name": "owner",
          "type": "address"
        }
      ],
      "name": "Bid",
      "type": "event"
    },
    {
      "inputs": [],
      "name": "getAllGlobalWalletAddress",
      "outputs": [
        {
          "internalType": "address[]",
          "name": "",
          "type": "address[]"
        }
      ],
      "stateMutability": "view",
      "type": "function"
    },
    {
      "inputs": [
        {
          "internalType": "address",
          "name": "_tokenContract",
          "type": "address"
        }
      ],
      "name": "getGlobalWalletBalance",
      "outputs": [
        {
          "internalType": "uint256",
          "name": "",
          "type": "uint256"
        }
      ],
      "stateMutability": "view",
      "type": "function"
    },
    {
      "inputs": [
        {
          "internalType": "address",
          "name": "_tokenContract",
          "type": "address"
        }
      ],
      "name": "getMyWalletBalance",
      "outputs": [
        {
          "internalType": "uint256",
          "name": "",
          "type": "uint256"
        }
      ],
      "stateMutability": "view",
      "type": "function"
    },
    {
      "inputs": [],
      "name": "owner",
      "outputs": [
        {
          "internalType": "address",
          "name": "",
          "type": "address"
        }
      ],
      "stateMutability": "view",
      "type": "function"
    },
    {
      "inputs": [
        {
          "internalType": "address",
          "name": "_tokenContract",
          "type": "address"
        }
      ],
      "name": "registerWallet",
      "outputs": [],
      "stateMutability": "payable",
      "type": "function"
    },
    {
      "inputs": [
        {
          "internalType": "address",
          "name": "_tokenContract",
          "type": "address"
        },
        {
          "internalType": "uint256",
          "name": "_amount",
          "type": "uint256"
        }
      ],
      "name": "topupWallet",
      "outputs": [],
      "stateMutability": "nonpayable",
      "type": "function"
    }
  ],
  "bytecode": "0x608060405234801561001057600080fd5b50336000806101000a81548173ffffffffffffffffffffffffffffffffffffffff021916908373ffffffffffffffffffffffffffffffffffffffff160217905550610fa1806100606000396000f3fe6080604052600436106100555760003560e01c80631608b6d81461005a578063779beedf146100855780638da5cb5b146100a15780638f46aa95146100cc5780639ac3a04514610109578063b2a584cb14610146575b600080fd5b34801561006657600080fd5b5061006f61016f565b60405161007c9190610d9a565b60405180910390f35b61009f600480360381019061009a9190610c17565b61024e565b005b3480156100ad57600080fd5b506100b661085a565b6040516100c39190610d48565b60405180910390f35b3480156100d857600080fd5b506100f360048036038101906100ee9190610c17565b61087e565b6040516101009190610dbc565b60405180910390f35b34801561011557600080fd5b50610130600480360381019061012b9190610c17565b6108cf565b60405161013d9190610dbc565b60405180910390f35b34801561015257600080fd5b5061016d60048036038101906101689190610c40565b61093c565b005b60608060005b61017f6004610bb4565b811015610246576008600082815260200190815260200160002060000160020160009054906101000a900473ffffffffffffffffffffffffffffffffffffffff168282815181106101f9577f4e487b7100000000000000000000000000000000000000000000000000000000600052603260045260246000fd5b602002602001019073ffffffffffffffffffffffffffffffffffffffff16908173ffffffffffffffffffffffffffffffffffffffff1681525050808061023e90610eae565b915050610175565b508091505090565b600061025a6003610bb4565b905060006102686004610bb4565b905081600a60003373ffffffffffffffffffffffffffffffffffffffff1673ffffffffffffffffffffffffffffffffffffffff1681526020019081526020016000206000018190555060016006600084815260200190815260200160002060030160006101000a81548160ff02191690831515021790555081600660008481526020019081526020016000206000016000018190555060006006600084815260200190815260200160002060000160010181905550826006600084815260200190815260200160002060000160020160006101000a81548173ffffffffffffffffffffffffffffffffffffffff021916908373ffffffffffffffffffffffffffffffffffffffff160217905550336006600084815260200190815260200160002060030160016101000a81548173ffffffffffffffffffffffffffffffffffffffff021916908373ffffffffffffffffffffffffffffffffffffffff1602179055506103d46003610bc2565b60066000838152602001908152602001600020600760008573ffffffffffffffffffffffffffffffffffffffff1673ffffffffffffffffffffffffffffffffffffffff168152602001908152602001600020600082018160000160008201548160000155600182015481600101556002820160009054906101000a900473ffffffffffffffffffffffffffffffffffffffff168160020160006101000a81548173ffffffffffffffffffffffffffffffffffffffff021916908373ffffffffffffffffffffffffffffffffffffffff16021790555050506003820160009054906101000a900460ff168160030160006101000a81548160ff0219169083151502179055506003820160019054906101000a900473ffffffffffffffffffffffffffffffffffffffff168160030160016101000a81548173ffffffffffffffffffffffffffffffffffffffff021916908373ffffffffffffffffffffffffffffffffffffffff1602179055509050506000600760008573ffffffffffffffffffffffffffffffffffffffff1673ffffffffffffffffffffffffffffffffffffffff1681526020019081526020016000206000016001018190555082600760008573ffffffffffffffffffffffffffffffffffffffff1673ffffffffffffffffffffffffffffffffffffffff16815260200190815260200160002060000160020160006101000a81548173ffffffffffffffffffffffffffffffffffffffff021916908373ffffffffffffffffffffffffffffffffffffffff16021790555033600760008573ffffffffffffffffffffffffffffffffffffffff1673ffffffffffffffffffffffffffffffffffffffff16815260200190815260200160002060030160016101000a81548173ffffffffffffffffffffffffffffffffffffffff021916908373ffffffffffffffffffffffffffffffffffffffff16021790555081600860008381526020019081526020016000206000016000018190555060006008600083815260200190815260200160002060000160010181905550826008600083815260200190815260200160002060000160020160006101000a81548173ffffffffffffffffffffffffffffffffffffffff021916908373ffffffffffffffffffffffffffffffffffffffff160217905550306008600083815260200190815260200160002060030160006101000a81548173ffffffffffffffffffffffffffffffffffffffff021916908373ffffffffffffffffffffffffffffffffffffffff1602179055506107866004610bc2565b6040518060600160405280828152602001600081526020018473ffffffffffffffffffffffffffffffffffffffff16815250600960008573ffffffffffffffffffffffffffffffffffffffff1673ffffffffffffffffffffffffffffffffffffffff168152602001908152602001600020600082015181600001556020820151816001015560408201518160020160006101000a81548173ffffffffffffffffffffffffffffffffffffffff021916908373ffffffffffffffffffffffffffffffffffffffff160217905550905050505050565b60008054906101000a900473ffffffffffffffffffffffffffffffffffffffff1681565b600080600960008473ffffffffffffffffffffffffffffffffffffffff1673ffffffffffffffffffffffffffffffffffffffff16815260200190815260200160002060010154905080915050919050565b600080600760008473ffffffffffffffffffffffffffffffffffffffff1673ffffffffffffffffffffffffffffffffffffffff1681526020019081526020016000206000016000015490506006600082815260200190815260200160002060000160010154915050919050565b6000600760008473ffffffffffffffffffffffffffffffffffffffff1673ffffffffffffffffffffffffffffffffffffffff1681526020019081526020016000206000016000015490506000600960008573ffffffffffffffffffffffffffffffffffffffff1673ffffffffffffffffffffffffffffffffffffffff16815260200190815260200160002060000154905060008490508073ffffffffffffffffffffffffffffffffffffffff166323b872dd3330876040518463ffffffff1660e01b8152600401610a0f93929190610d63565b602060405180830381600087803b158015610a2957600080fd5b505af1158015610a3d573d6000803e3d6000fd5b505050506040513d601f19601f82011682018060405250810190610a619190610c7c565b5083600660008581526020019081526020016000206000016001016000828254610a8b9190610e10565b92505081905550604051806060016040528083815260200185600960008973ffffffffffffffffffffffffffffffffffffffff1673ffffffffffffffffffffffffffffffffffffffff16815260200190815260200160002060010154610af19190610e10565b81526020018673ffffffffffffffffffffffffffffffffffffffff16815250600960008773ffffffffffffffffffffffffffffffffffffffff1673ffffffffffffffffffffffffffffffffffffffff168152602001908152602001600020600082015181600001556020820151816001015560408201518160020160006101000a81548173ffffffffffffffffffffffffffffffffffffffff021916908373ffffffffffffffffffffffffffffffffffffffff1602179055509050505050505050565b600081600001549050919050565b6001816000016000828254019250508190555050565b600081359050610be781610f26565b92915050565b600081519050610bfc81610f3d565b92915050565b600081359050610c1181610f54565b92915050565b600060208284031215610c2957600080fd5b6000610c3784828501610bd8565b91505092915050565b60008060408385031215610c5357600080fd5b6000610c6185828601610bd8565b9250506020610c7285828601610c02565b9150509250929050565b600060208284031215610c8e57600080fd5b6000610c9c84828501610bed565b91505092915050565b6000610cb18383610cbd565b60208301905092915050565b610cc681610e66565b82525050565b610cd581610e66565b82525050565b6000610ce682610de7565b610cf08185610dff565b9350610cfb83610dd7565b8060005b83811015610d2c578151610d138882610ca5565b9750610d1e83610df2565b925050600181019050610cff565b5085935050505092915050565b610d4281610ea4565b82525050565b6000602082019050610d5d6000830184610ccc565b92915050565b6000606082019050610d786000830186610ccc565b610d856020830185610ccc565b610d926040830184610d39565b949350505050565b60006020820190508181036000830152610db48184610cdb565b905092915050565b6000602082019050610dd16000830184610d39565b92915050565b6000819050602082019050919050565b600081519050919050565b6000602082019050919050565b600082825260208201905092915050565b6000610e1b82610ea4565b9150610e2683610ea4565b9250827fffffffffffffffffffffffffffffffffffffffffffffffffffffffffffffffff03821115610e5b57610e5a610ef7565b5b828201905092915050565b6000610e7182610e84565b9050919050565b60008115159050919050565b600073ffffffffffffffffffffffffffffffffffffffff82169050919050565b6000819050919050565b6000610eb982610ea4565b91507fffffffffffffffffffffffffffffffffffffffffffffffffffffffffffffffff821415610eec57610eeb610ef7565b5b600182019050919050565b7f4e487b7100000000000000000000000000000000000000000000000000000000600052601160045260246000fd5b610f2f81610e66565b8114610f3a57600080fd5b50565b610f4681610e78565b8114610f5157600080fd5b50565b610f5d81610ea4565b8114610f6857600080fd5b5056fea26469706673582212202710c0b7a7c089a935bdbb83d5ad4b60fae825ec8f2f68c268aec3459ec1248464736f6c63430008040033",
  "linkReferences": {},
  "deployedLinkReferences": {}
}