{
  "_format": "hh-sol-artifact-1",
  "contractName": "PoropAja",
  "sourceName": "contracts/PoropAja.sol",
  "abi": [
    {
      "inputs": [],
      "stateMutability": "nonpayable",
      "type": "constructor"
    },
    {
      "anonymous": false,
      "inputs": [
        {
          "indexed": false,
          "internalType": "uint256",
          "name": "id",
          "type": "uint256"
        },
        {
          "indexed": false,
          "internalType": "uint256",
          "name": "price",
          "type": "uint256"
        },
        {
          "indexed": false,
          "internalType": "uint256",
          "name": "amount",
          "type": "uint256"
        },
        {
          "indexed": false,
          "internalType": "address",
          "name": "seller",
          "type": "address"
        },
        {
          "indexed": false,
          "internalType": "address",
          "name": "owner",
          "type": "address"
        }
      ],
      "name": "Ask",
      "type": "event"
    },
    {
      "anonymous": false,
      "inputs": [
        {
          "indexed": false,
          "internalType": "uint256",
          "name": "id",
          "type": "uint256"
        },
        {
          "indexed": false,
          "internalType": "uint256",
          "name": "price",
          "type": "uint256"
        },
        {
          "indexed": false,
          "internalType": "uint256",
          "name": "amount",
          "type": "uint256"
        },
        {
          "indexed": false,
          "internalType": "address",
          "name": "seller",
          "type": "address"
        },
        {
          "indexed": false,
          "internalType": "address",
          "name": "owner",
          "type": "address"
        }
      ],
      "name": "Bid",
      "type": "event"
    },
    {
      "inputs": [
        {
          "internalType": "address",
          "name": "_tokenContract",
          "type": "address"
        }
      ],
      "name": "getGlobalWalletBalance",
      "outputs": [
        {
          "internalType": "uint256",
          "name": "",
          "type": "uint256"
        }
      ],
      "stateMutability": "view",
      "type": "function"
    },
    {
      "inputs": [
        {
          "internalType": "address",
          "name": "_tokenContract",
          "type": "address"
        }
      ],
      "name": "getMyWalletBalance",
      "outputs": [
        {
          "internalType": "uint256",
          "name": "",
          "type": "uint256"
        }
      ],
      "stateMutability": "view",
      "type": "function"
    },
    {
      "inputs": [],
      "name": "owner",
      "outputs": [
        {
          "internalType": "address",
          "name": "",
          "type": "address"
        }
      ],
      "stateMutability": "view",
      "type": "function"
    },
    {
      "inputs": [
        {
          "internalType": "address",
          "name": "_tokenContract",
          "type": "address"
        }
      ],
      "name": "registerWallet",
      "outputs": [],
      "stateMutability": "payable",
      "type": "function"
    },
    {
      "inputs": [
        {
          "internalType": "address",
          "name": "_tokenContract",
          "type": "address"
        },
        {
          "internalType": "uint256",
          "name": "_amount",
          "type": "uint256"
        }
      ],
      "name": "topupWallet",
      "outputs": [],
      "stateMutability": "nonpayable",
      "type": "function"
    }
  ],
  "bytecode": "0x608060405234801561001057600080fd5b50336000806101000a81548173ffffffffffffffffffffffffffffffffffffffff021916908373ffffffffffffffffffffffffffffffffffffffff160217905550610d43806100606000396000f3fe60806040526004361061004a5760003560e01c8063779beedf1461004f5780638da5cb5b1461006b5780638f46aa95146100965780639ac3a045146100d3578063b2a584cb14610110575b600080fd5b61006960048036038101906100649190610ae2565b610139565b005b34801561007757600080fd5b50610080610745565b60405161008d9190610b8e565b60405180910390f35b3480156100a257600080fd5b506100bd60048036038101906100b89190610ae2565b610769565b6040516100ca9190610be0565b60405180910390f35b3480156100df57600080fd5b506100fa60048036038101906100f59190610ae2565b6107d3565b6040516101079190610be0565b60405180910390f35b34801561011c57600080fd5b5061013760048036038101906101329190610b0b565b610840565b005b60006101456003610a7f565b905060006101536004610a7f565b905081600a60003373ffffffffffffffffffffffffffffffffffffffff1673ffffffffffffffffffffffffffffffffffffffff1681526020019081526020016000206000018190555060016006600084815260200190815260200160002060030160006101000a81548160ff02191690831515021790555081600660008481526020019081526020016000206000016000018190555060006006600084815260200190815260200160002060000160010181905550826006600084815260200190815260200160002060000160020160006101000a81548173ffffffffffffffffffffffffffffffffffffffff021916908373ffffffffffffffffffffffffffffffffffffffff160217905550336006600084815260200190815260200160002060030160016101000a81548173ffffffffffffffffffffffffffffffffffffffff021916908373ffffffffffffffffffffffffffffffffffffffff1602179055506102bf6003610a8d565b60066000838152602001908152602001600020600760008573ffffffffffffffffffffffffffffffffffffffff1673ffffffffffffffffffffffffffffffffffffffff168152602001908152602001600020600082018160000160008201548160000155600182015481600101556002820160009054906101000a900473ffffffffffffffffffffffffffffffffffffffff168160020160006101000a81548173ffffffffffffffffffffffffffffffffffffffff021916908373ffffffffffffffffffffffffffffffffffffffff16021790555050506003820160009054906101000a900460ff168160030160006101000a81548160ff0219169083151502179055506003820160019054906101000a900473ffffffffffffffffffffffffffffffffffffffff168160030160016101000a81548173ffffffffffffffffffffffffffffffffffffffff021916908373ffffffffffffffffffffffffffffffffffffffff1602179055509050506000600760008573ffffffffffffffffffffffffffffffffffffffff1673ffffffffffffffffffffffffffffffffffffffff1681526020019081526020016000206000016001018190555082600760008573ffffffffffffffffffffffffffffffffffffffff1673ffffffffffffffffffffffffffffffffffffffff16815260200190815260200160002060000160020160006101000a81548173ffffffffffffffffffffffffffffffffffffffff021916908373ffffffffffffffffffffffffffffffffffffffff16021790555033600760008573ffffffffffffffffffffffffffffffffffffffff1673ffffffffffffffffffffffffffffffffffffffff16815260200190815260200160002060030160016101000a81548173ffffffffffffffffffffffffffffffffffffffff021916908373ffffffffffffffffffffffffffffffffffffffff16021790555081600860008381526020019081526020016000206000016000018190555060006008600083815260200190815260200160002060000160010181905550826008600083815260200190815260200160002060000160020160006101000a81548173ffffffffffffffffffffffffffffffffffffffff021916908373ffffffffffffffffffffffffffffffffffffffff160217905550306008600083815260200190815260200160002060030160006101000a81548173ffffffffffffffffffffffffffffffffffffffff021916908373ffffffffffffffffffffffffffffffffffffffff1602179055506106716004610a8d565b6040518060600160405280828152602001600081526020018473ffffffffffffffffffffffffffffffffffffffff16815250600960008573ffffffffffffffffffffffffffffffffffffffff1673ffffffffffffffffffffffffffffffffffffffff168152602001908152602001600020600082015181600001556020820151816001015560408201518160020160006101000a81548173ffffffffffffffffffffffffffffffffffffffff021916908373ffffffffffffffffffffffffffffffffffffffff160217905550905050505050565b60008054906101000a900473ffffffffffffffffffffffffffffffffffffffff1681565b600080600960008473ffffffffffffffffffffffffffffffffffffffff1673ffffffffffffffffffffffffffffffffffffffff1681526020019081526020016000206000015490506008600082815260200190815260200160002060000160010154915050919050565b600080600760008473ffffffffffffffffffffffffffffffffffffffff1673ffffffffffffffffffffffffffffffffffffffff1681526020019081526020016000206000016000015490506006600082815260200190815260200160002060000160010154915050919050565b6000600760008473ffffffffffffffffffffffffffffffffffffffff1673ffffffffffffffffffffffffffffffffffffffff1681526020019081526020016000206000016000015490506000600960008573ffffffffffffffffffffffffffffffffffffffff1673ffffffffffffffffffffffffffffffffffffffff16815260200190815260200160002060000154905060008490508073ffffffffffffffffffffffffffffffffffffffff166323b872dd3330876040518463ffffffff1660e01b815260040161091393929190610ba9565b602060405180830381600087803b15801561092d57600080fd5b505af1158015610941573d6000803e3d6000fd5b505050506040513d601f19601f820116820180604052508101906109659190610b47565b508360066000858152602001908152602001600020600001600101600082825461098f9190610bfb565b9250508190555083600960008773ffffffffffffffffffffffffffffffffffffffff1673ffffffffffffffffffffffffffffffffffffffff16815260200190815260200160002060010160008282546109e89190610bfb565b9250508190555083600860008481526020019081526020016000206000016001016000828254610a189190610bfb565b9250508190555083600960008773ffffffffffffffffffffffffffffffffffffffff1673ffffffffffffffffffffffffffffffffffffffff1681526020019081526020016000206001016000828254610a719190610bfb565b925050819055505050505050565b600081600001549050919050565b6001816000016000828254019250508190555050565b600081359050610ab281610cc8565b92915050565b600081519050610ac781610cdf565b92915050565b600081359050610adc81610cf6565b92915050565b600060208284031215610af457600080fd5b6000610b0284828501610aa3565b91505092915050565b60008060408385031215610b1e57600080fd5b6000610b2c85828601610aa3565b9250506020610b3d85828601610acd565b9150509250929050565b600060208284031215610b5957600080fd5b6000610b6784828501610ab8565b91505092915050565b610b7981610c51565b82525050565b610b8881610c8f565b82525050565b6000602082019050610ba36000830184610b70565b92915050565b6000606082019050610bbe6000830186610b70565b610bcb6020830185610b70565b610bd86040830184610b7f565b949350505050565b6000602082019050610bf56000830184610b7f565b92915050565b6000610c0682610c8f565b9150610c1183610c8f565b9250827fffffffffffffffffffffffffffffffffffffffffffffffffffffffffffffffff03821115610c4657610c45610c99565b5b828201905092915050565b6000610c5c82610c6f565b9050919050565b60008115159050919050565b600073ffffffffffffffffffffffffffffffffffffffff82169050919050565b6000819050919050565b7f4e487b7100000000000000000000000000000000000000000000000000000000600052601160045260246000fd5b610cd181610c51565b8114610cdc57600080fd5b50565b610ce881610c63565b8114610cf357600080fd5b50565b610cff81610c8f565b8114610d0a57600080fd5b5056fea2646970667358221220c8013accd19c6154094f0c3143c0d8887ecaf589a10fc72ea13b5e7748dd7f6d64736f6c63430008040033",
  "linkReferences": {},
  "deployedLinkReferences": {}
}