{
  "_format": "hh-sol-artifact-1",
  "contractName": "PoropAja",
  "sourceName": "contracts/PoropAja.sol",
  "abi": [
    {
      "inputs": [],
      "stateMutability": "nonpayable",
      "type": "constructor"
    },
    {
      "anonymous": false,
      "inputs": [
        {
          "indexed": false,
          "internalType": "uint256",
          "name": "id",
          "type": "uint256"
        },
        {
          "indexed": false,
          "internalType": "uint256",
          "name": "price",
          "type": "uint256"
        },
        {
          "indexed": false,
          "internalType": "uint256",
          "name": "amount",
          "type": "uint256"
        },
        {
          "indexed": false,
          "internalType": "address",
          "name": "seller",
          "type": "address"
        },
        {
          "indexed": false,
          "internalType": "address",
          "name": "owner",
          "type": "address"
        }
      ],
      "name": "Ask",
      "type": "event"
    },
    {
      "anonymous": false,
      "inputs": [
        {
          "indexed": false,
          "internalType": "uint256",
          "name": "id",
          "type": "uint256"
        },
        {
          "indexed": false,
          "internalType": "uint256",
          "name": "price",
          "type": "uint256"
        },
        {
          "indexed": false,
          "internalType": "uint256",
          "name": "amount",
          "type": "uint256"
        },
        {
          "indexed": false,
          "internalType": "address",
          "name": "seller",
          "type": "address"
        },
        {
          "indexed": false,
          "internalType": "address",
          "name": "owner",
          "type": "address"
        }
      ],
      "name": "Bid",
      "type": "event"
    },
    {
      "inputs": [],
      "name": "getAllGlobalWalletAddress",
      "outputs": [
        {
          "internalType": "address[]",
          "name": "",
          "type": "address[]"
        }
      ],
      "stateMutability": "view",
      "type": "function"
    },
    {
      "inputs": [
        {
          "internalType": "address",
          "name": "_tokenContract",
          "type": "address"
        }
      ],
      "name": "getGlobalWalletBalance",
      "outputs": [
        {
          "internalType": "uint256",
          "name": "",
          "type": "uint256"
        }
      ],
      "stateMutability": "view",
      "type": "function"
    },
    {
      "inputs": [
        {
          "internalType": "address",
          "name": "_tokenContract",
          "type": "address"
        }
      ],
      "name": "getMyWalletBalance",
      "outputs": [
        {
          "internalType": "uint256",
          "name": "",
          "type": "uint256"
        }
      ],
      "stateMutability": "view",
      "type": "function"
    },
    {
      "inputs": [],
      "name": "owner",
      "outputs": [
        {
          "internalType": "address",
          "name": "",
          "type": "address"
        }
      ],
      "stateMutability": "view",
      "type": "function"
    },
    {
      "inputs": [
        {
          "internalType": "address",
          "name": "_tokenContract",
          "type": "address"
        }
      ],
      "name": "registerWallet",
      "outputs": [],
      "stateMutability": "payable",
      "type": "function"
    },
    {
      "inputs": [
        {
          "internalType": "address",
          "name": "_tokenContract",
          "type": "address"
        },
        {
          "internalType": "uint256",
          "name": "_amount",
          "type": "uint256"
        }
      ],
      "name": "topupWallet",
      "outputs": [],
      "stateMutability": "nonpayable",
      "type": "function"
    }
  ],
  "bytecode": "0x608060405234801561001057600080fd5b50336000806101000a81548173ffffffffffffffffffffffffffffffffffffffff021916908373ffffffffffffffffffffffffffffffffffffffff160217905550610f7e806100606000396000f3fe6080604052600436106100555760003560e01c80631608b6d81461005a578063779beedf146100855780638da5cb5b146100a15780638f46aa95146100cc5780639ac3a04514610109578063b2a584cb14610146575b600080fd5b34801561006657600080fd5b5061006f61016f565b60405161007c9190610d77565b60405180910390f35b61009f600480360381019061009a9190610bf4565b61024e565b005b3480156100ad57600080fd5b506100b661085a565b6040516100c39190610d25565b60405180910390f35b3480156100d857600080fd5b506100f360048036038101906100ee9190610bf4565b61087e565b6040516101009190610d99565b60405180910390f35b34801561011557600080fd5b50610130600480360381019061012b9190610bf4565b6108cf565b60405161013d9190610d99565b60405180910390f35b34801561015257600080fd5b5061016d60048036038101906101689190610c1d565b61093c565b005b60608060005b61017f6004610b91565b811015610246576008600082815260200190815260200160002060000160020160009054906101000a900473ffffffffffffffffffffffffffffffffffffffff168282815181106101f9577f4e487b7100000000000000000000000000000000000000000000000000000000600052603260045260246000fd5b602002602001019073ffffffffffffffffffffffffffffffffffffffff16908173ffffffffffffffffffffffffffffffffffffffff1681525050808061023e90610e8b565b915050610175565b508091505090565b600061025a6003610b91565b905060006102686004610b91565b905081600a60003373ffffffffffffffffffffffffffffffffffffffff1673ffffffffffffffffffffffffffffffffffffffff1681526020019081526020016000206000018190555060016006600084815260200190815260200160002060030160006101000a81548160ff02191690831515021790555081600660008481526020019081526020016000206000016000018190555060006006600084815260200190815260200160002060000160010181905550826006600084815260200190815260200160002060000160020160006101000a81548173ffffffffffffffffffffffffffffffffffffffff021916908373ffffffffffffffffffffffffffffffffffffffff160217905550336006600084815260200190815260200160002060030160016101000a81548173ffffffffffffffffffffffffffffffffffffffff021916908373ffffffffffffffffffffffffffffffffffffffff1602179055506103d46003610b9f565b60066000838152602001908152602001600020600760008573ffffffffffffffffffffffffffffffffffffffff1673ffffffffffffffffffffffffffffffffffffffff168152602001908152602001600020600082018160000160008201548160000155600182015481600101556002820160009054906101000a900473ffffffffffffffffffffffffffffffffffffffff168160020160006101000a81548173ffffffffffffffffffffffffffffffffffffffff021916908373ffffffffffffffffffffffffffffffffffffffff16021790555050506003820160009054906101000a900460ff168160030160006101000a81548160ff0219169083151502179055506003820160019054906101000a900473ffffffffffffffffffffffffffffffffffffffff168160030160016101000a81548173ffffffffffffffffffffffffffffffffffffffff021916908373ffffffffffffffffffffffffffffffffffffffff1602179055509050506000600760008573ffffffffffffffffffffffffffffffffffffffff1673ffffffffffffffffffffffffffffffffffffffff1681526020019081526020016000206000016001018190555082600760008573ffffffffffffffffffffffffffffffffffffffff1673ffffffffffffffffffffffffffffffffffffffff16815260200190815260200160002060000160020160006101000a81548173ffffffffffffffffffffffffffffffffffffffff021916908373ffffffffffffffffffffffffffffffffffffffff16021790555033600760008573ffffffffffffffffffffffffffffffffffffffff1673ffffffffffffffffffffffffffffffffffffffff16815260200190815260200160002060030160016101000a81548173ffffffffffffffffffffffffffffffffffffffff021916908373ffffffffffffffffffffffffffffffffffffffff16021790555081600860008381526020019081526020016000206000016000018190555060006008600083815260200190815260200160002060000160010181905550826008600083815260200190815260200160002060000160020160006101000a81548173ffffffffffffffffffffffffffffffffffffffff021916908373ffffffffffffffffffffffffffffffffffffffff160217905550306008600083815260200190815260200160002060030160006101000a81548173ffffffffffffffffffffffffffffffffffffffff021916908373ffffffffffffffffffffffffffffffffffffffff1602179055506107866004610b9f565b6040518060600160405280828152602001600081526020018473ffffffffffffffffffffffffffffffffffffffff16815250600960008573ffffffffffffffffffffffffffffffffffffffff1673ffffffffffffffffffffffffffffffffffffffff168152602001908152602001600020600082015181600001556020820151816001015560408201518160020160006101000a81548173ffffffffffffffffffffffffffffffffffffffff021916908373ffffffffffffffffffffffffffffffffffffffff160217905550905050505050565b60008054906101000a900473ffffffffffffffffffffffffffffffffffffffff1681565b600080600960008473ffffffffffffffffffffffffffffffffffffffff1673ffffffffffffffffffffffffffffffffffffffff16815260200190815260200160002060010154905080915050919050565b600080600760008473ffffffffffffffffffffffffffffffffffffffff1673ffffffffffffffffffffffffffffffffffffffff1681526020019081526020016000206000016000015490506006600082815260200190815260200160002060000160010154915050919050565b6000600760008473ffffffffffffffffffffffffffffffffffffffff1673ffffffffffffffffffffffffffffffffffffffff1681526020019081526020016000206000016000015490506000600960008573ffffffffffffffffffffffffffffffffffffffff1673ffffffffffffffffffffffffffffffffffffffff16815260200190815260200160002060000154905060008490508073ffffffffffffffffffffffffffffffffffffffff166323b872dd3330876040518463ffffffff1660e01b8152600401610a0f93929190610d40565b602060405180830381600087803b158015610a2957600080fd5b505af1158015610a3d573d6000803e3d6000fd5b505050506040513d601f19601f82011682018060405250810190610a619190610c59565b5083600660008581526020019081526020016000206000016001016000828254610a8b9190610ded565b9250508190555060006008600084815260200190815260200160002060000160010154905060405180606001604052808481526020018683610acd9190610ded565b81526020018773ffffffffffffffffffffffffffffffffffffffff16815250600960008873ffffffffffffffffffffffffffffffffffffffff1673ffffffffffffffffffffffffffffffffffffffff168152602001908152602001600020600082015181600001556020820151816001015560408201518160020160006101000a81548173ffffffffffffffffffffffffffffffffffffffff021916908373ffffffffffffffffffffffffffffffffffffffff160217905550905050505050505050565b600081600001549050919050565b6001816000016000828254019250508190555050565b600081359050610bc481610f03565b92915050565b600081519050610bd981610f1a565b92915050565b600081359050610bee81610f31565b92915050565b600060208284031215610c0657600080fd5b6000610c1484828501610bb5565b91505092915050565b60008060408385031215610c3057600080fd5b6000610c3e85828601610bb5565b9250506020610c4f85828601610bdf565b9150509250929050565b600060208284031215610c6b57600080fd5b6000610c7984828501610bca565b91505092915050565b6000610c8e8383610c9a565b60208301905092915050565b610ca381610e43565b82525050565b610cb281610e43565b82525050565b6000610cc382610dc4565b610ccd8185610ddc565b9350610cd883610db4565b8060005b83811015610d09578151610cf08882610c82565b9750610cfb83610dcf565b925050600181019050610cdc565b5085935050505092915050565b610d1f81610e81565b82525050565b6000602082019050610d3a6000830184610ca9565b92915050565b6000606082019050610d556000830186610ca9565b610d626020830185610ca9565b610d6f6040830184610d16565b949350505050565b60006020820190508181036000830152610d918184610cb8565b905092915050565b6000602082019050610dae6000830184610d16565b92915050565b6000819050602082019050919050565b600081519050919050565b6000602082019050919050565b600082825260208201905092915050565b6000610df882610e81565b9150610e0383610e81565b9250827fffffffffffffffffffffffffffffffffffffffffffffffffffffffffffffffff03821115610e3857610e37610ed4565b5b828201905092915050565b6000610e4e82610e61565b9050919050565b60008115159050919050565b600073ffffffffffffffffffffffffffffffffffffffff82169050919050565b6000819050919050565b6000610e9682610e81565b91507fffffffffffffffffffffffffffffffffffffffffffffffffffffffffffffffff821415610ec957610ec8610ed4565b5b600182019050919050565b7f4e487b7100000000000000000000000000000000000000000000000000000000600052601160045260246000fd5b610f0c81610e43565b8114610f1757600080fd5b50565b610f2381610e55565b8114610f2e57600080fd5b50565b610f3a81610e81565b8114610f4557600080fd5b5056fea2646970667358221220668a88b74f8a39ae1e1e36ad9222d16bcc37dc9014b8504123d0e65b35321e4964736f6c63430008040033",
  "linkReferences": {},
  "deployedLinkReferences": {}
}