{
  "_format": "hh-sol-artifact-1",
  "contractName": "PoropAja",
  "sourceName": "contracts/PoropAja.sol",
  "abi": [
    {
      "inputs": [],
      "stateMutability": "nonpayable",
      "type": "constructor"
    },
    {
      "anonymous": false,
      "inputs": [
        {
          "indexed": false,
          "internalType": "uint256",
          "name": "id",
          "type": "uint256"
        },
        {
          "indexed": false,
          "internalType": "uint256",
          "name": "price",
          "type": "uint256"
        },
        {
          "indexed": false,
          "internalType": "uint256",
          "name": "amount",
          "type": "uint256"
        },
        {
          "indexed": false,
          "internalType": "address",
          "name": "seller",
          "type": "address"
        },
        {
          "indexed": false,
          "internalType": "address",
          "name": "owner",
          "type": "address"
        }
      ],
      "name": "Ask",
      "type": "event"
    },
    {
      "anonymous": false,
      "inputs": [
        {
          "indexed": false,
          "internalType": "uint256",
          "name": "id",
          "type": "uint256"
        },
        {
          "indexed": false,
          "internalType": "uint256",
          "name": "price",
          "type": "uint256"
        },
        {
          "indexed": false,
          "internalType": "uint256",
          "name": "amount",
          "type": "uint256"
        },
        {
          "indexed": false,
          "internalType": "address",
          "name": "seller",
          "type": "address"
        },
        {
          "indexed": false,
          "internalType": "address",
          "name": "owner",
          "type": "address"
        }
      ],
      "name": "Bid",
      "type": "event"
    },
    {
      "inputs": [
        {
          "internalType": "string",
          "name": "_tokenContract",
          "type": "string"
        }
      ],
      "name": "getGlobalWalletBalance",
      "outputs": [
        {
          "internalType": "uint256",
          "name": "",
          "type": "uint256"
        }
      ],
      "stateMutability": "view",
      "type": "function"
    },
    {
      "inputs": [
        {
          "internalType": "string",
          "name": "_tokenContract",
          "type": "string"
        }
      ],
      "name": "getMyWalletBalance",
      "outputs": [
        {
          "internalType": "uint256",
          "name": "",
          "type": "uint256"
        }
      ],
      "stateMutability": "view",
      "type": "function"
    },
    {
      "inputs": [],
      "name": "owner",
      "outputs": [
        {
          "internalType": "address",
          "name": "",
          "type": "address"
        }
      ],
      "stateMutability": "view",
      "type": "function"
    },
    {
      "inputs": [
        {
          "internalType": "string",
          "name": "_tokenContract",
          "type": "string"
        }
      ],
      "name": "registerWallet",
      "outputs": [],
      "stateMutability": "payable",
      "type": "function"
    },
    {
      "inputs": [
        {
          "internalType": "string",
          "name": "_tokenContract",
          "type": "string"
        },
        {
          "internalType": "uint256",
          "name": "_amount",
          "type": "uint256"
        }
      ],
      "name": "topupWallet",
      "outputs": [],
      "stateMutability": "nonpayable",
      "type": "function"
    }
  ],
  "bytecode": "0x608060405234801561001057600080fd5b50336000806101000a81548173ffffffffffffffffffffffffffffffffffffffff021916908373ffffffffffffffffffffffffffffffffffffffff160217905550610d09806100606000396000f3fe60806040526004361061004a5760003560e01c8063052af18b1461004f578063464320b41461008c57806374b6068f146100b55780638da5cb5b146100d1578063e7340913146100fc575b600080fd5b34801561005b57600080fd5b506100766004803603810190610071919061094a565b610139565b6040516100839190610a60565b60405180910390f35b34801561009857600080fd5b506100b360048036038101906100ae919061098b565b610182565b005b6100cf60048036038101906100ca919061094a565b6102a7565b005b3480156100dd57600080fd5b506100e6610709565b6040516100f39190610a45565b60405180910390f35b34801561010857600080fd5b50610123600480360381019061011e919061094a565b61072d565b6040516101309190610a60565b60405180910390f35b60008060098360405161014c9190610a2e565b90815260200160405180910390206000015490506008600082815260200190815260200160002060000160010154915050919050565b60006007836040516101949190610a2e565b908152602001604051809103902060000160000154905060006009846040516101bd9190610a2e565b9081526020016040518091039020600001549050826006600084815260200190815260200160002060000160010160008282546101fa9190610ae7565b92505081905550826009856040516102129190610a2e565b908152602001604051809103902060010160008282546102329190610ae7565b92505081905550826008600083815260200190815260200160002060000160010160008282546102629190610ae7565b925050819055508260098560405161027a9190610a2e565b9081526020016040518091039020600101600082825461029a9190610ae7565b9250508190555050505050565b60006102b36003610779565b905060006102c16004610779565b905081600a60003373ffffffffffffffffffffffffffffffffffffffff1673ffffffffffffffffffffffffffffffffffffffff1681526020019081526020016000206000018190555060016006600084815260200190815260200160002060030160006101000a81548160ff02191690831515021790555081600660008481526020019081526020016000206000016000018190555060006006600084815260200190815260200160002060000160010181905550826006600084815260200190815260200160002060000160020190805190602001906103a392919061079d565b50336006600084815260200190815260200160002060030160016101000a81548173ffffffffffffffffffffffffffffffffffffffff021916908373ffffffffffffffffffffffffffffffffffffffff1602179055506104036003610787565b600660008381526020019081526020016000206007846040516104269190610a2e565b908152602001604051809103902060008201816000016000820154816000015560018201548160010155600282018160020190805461046490610bbb565b61046f929190610823565b5050506003820160009054906101000a900460ff168160030160006101000a81548160ff0219169083151502179055506003820160019054906101000a900473ffffffffffffffffffffffffffffffffffffffff168160030160016101000a81548173ffffffffffffffffffffffffffffffffffffffff021916908373ffffffffffffffffffffffffffffffffffffffff160217905550905050600060078460405161051b9190610a2e565b908152602001604051809103902060000160010181905550826007846040516105449190610a2e565b9081526020016040518091039020600001600201908051906020019061056b92919061079d565b503360078460405161057d9190610a2e565b908152602001604051809103902060030160016101000a81548173ffffffffffffffffffffffffffffffffffffffff021916908373ffffffffffffffffffffffffffffffffffffffff160217905550816008600083815260200190815260200160002060000160000181905550600060086000838152602001908152602001600020600001600101819055508260086000838152602001908152602001600020600001600201908051906020019061063692919061079d565b50306008600083815260200190815260200160002060030160006101000a81548173ffffffffffffffffffffffffffffffffffffffff021916908373ffffffffffffffffffffffffffffffffffffffff1602179055506106966004610787565b604051806060016040528082815260200160008152602001848152506009846040516106c29190610a2e565b90815260200160405180910390206000820151816000015560208201518160010155604082015181600201908051906020019061070092919061079d565b50905050505050565b60008054906101000a900473ffffffffffffffffffffffffffffffffffffffff1681565b6000806007836040516107409190610a2e565b90815260200160405180910390206000016000015490506006600082815260200190815260200160002060000160010154915050919050565b600081600001549050919050565b6001816000016000828254019250508190555050565b8280546107a990610bbb565b90600052602060002090601f0160209004810192826107cb5760008555610812565b82601f106107e457805160ff1916838001178555610812565b82800160010185558215610812579182015b828111156108115782518255916020019190600101906107f6565b5b50905061081f91906108b0565b5090565b82805461082f90610bbb565b90600052602060002090601f016020900481019282610851576000855561089f565b82601f10610862578054855561089f565b8280016001018555821561089f57600052602060002091601f016020900482015b8281111561089e578254825591600101919060010190610883565b5b5090506108ac91906108b0565b5090565b5b808211156108c95760008160009055506001016108b1565b5090565b60006108e06108db84610aa0565b610a7b565b9050828152602081018484840111156108f857600080fd5b610903848285610b79565b509392505050565b600082601f83011261091c57600080fd5b813561092c8482602086016108cd565b91505092915050565b60008135905061094481610cbc565b92915050565b60006020828403121561095c57600080fd5b600082013567ffffffffffffffff81111561097657600080fd5b6109828482850161090b565b91505092915050565b6000806040838503121561099e57600080fd5b600083013567ffffffffffffffff8111156109b857600080fd5b6109c48582860161090b565b92505060206109d585828601610935565b9150509250929050565b6109e881610b3d565b82525050565b60006109f982610ad1565b610a038185610adc565b9350610a13818560208601610b88565b80840191505092915050565b610a2881610b6f565b82525050565b6000610a3a82846109ee565b915081905092915050565b6000602082019050610a5a60008301846109df565b92915050565b6000602082019050610a756000830184610a1f565b92915050565b6000610a85610a96565b9050610a918282610bed565b919050565b6000604051905090565b600067ffffffffffffffff821115610abb57610aba610c7c565b5b610ac482610cab565b9050602081019050919050565b600081519050919050565b600081905092915050565b6000610af282610b6f565b9150610afd83610b6f565b9250827fffffffffffffffffffffffffffffffffffffffffffffffffffffffffffffffff03821115610b3257610b31610c1e565b5b828201905092915050565b6000610b4882610b4f565b9050919050565b600073ffffffffffffffffffffffffffffffffffffffff82169050919050565b6000819050919050565b82818337600083830152505050565b60005b83811015610ba6578082015181840152602081019050610b8b565b83811115610bb5576000848401525b50505050565b60006002820490506001821680610bd357607f821691505b60208210811415610be757610be6610c4d565b5b50919050565b610bf682610cab565b810181811067ffffffffffffffff82111715610c1557610c14610c7c565b5b80604052505050565b7f4e487b7100000000000000000000000000000000000000000000000000000000600052601160045260246000fd5b7f4e487b7100000000000000000000000000000000000000000000000000000000600052602260045260246000fd5b7f4e487b7100000000000000000000000000000000000000000000000000000000600052604160045260246000fd5b6000601f19601f8301169050919050565b610cc581610b6f565b8114610cd057600080fd5b5056fea2646970667358221220a3c75d66b42d1cad599fd34621d9161acbb4a0c47adcdc381502a9c50abf7e8164736f6c63430008040033",
  "linkReferences": {},
  "deployedLinkReferences": {}
}