{
  "_format": "hh-sol-artifact-1",
  "contractName": "WalletInvest",
  "sourceName": "contracts/WalletInvest.sol",
  "abi": [
    {
      "inputs": [],
      "stateMutability": "nonpayable",
      "type": "constructor"
    },
    {
      "anonymous": false,
      "inputs": [
        {
          "indexed": true,
          "internalType": "uint256",
          "name": "id",
          "type": "uint256"
        },
        {
          "indexed": false,
          "internalType": "uint256",
          "name": "price",
          "type": "uint256"
        },
        {
          "indexed": false,
          "internalType": "uint256",
          "name": "stock",
          "type": "uint256"
        },
        {
          "indexed": false,
          "internalType": "address",
          "name": "tokenForSale",
          "type": "address"
        },
        {
          "indexed": false,
          "internalType": "address",
          "name": "tokenForBuy",
          "type": "address"
        },
        {
          "indexed": false,
          "internalType": "address",
          "name": "owner",
          "type": "address"
        }
      ],
      "name": "CreateMarket",
      "type": "event"
    },
    {
      "inputs": [
        {
          "internalType": "uint256",
          "name": "_id",
          "type": "uint256"
        }
      ],
      "name": "getListTokenById",
      "outputs": [
        {
          "components": [
            {
              "internalType": "uint256",
              "name": "itemId",
              "type": "uint256"
            },
            {
              "internalType": "uint256",
              "name": "price",
              "type": "uint256"
            },
            {
              "internalType": "uint256",
              "name": "stock",
              "type": "uint256"
            },
            {
              "internalType": "address",
              "name": "tokenForSale",
              "type": "address"
            },
            {
              "internalType": "address",
              "name": "tokenForBuy",
              "type": "address"
            },
            {
              "internalType": "address",
              "name": "owner",
              "type": "address"
            }
          ],
          "internalType": "struct MarketItem",
          "name": "",
          "type": "tuple"
        }
      ],
      "stateMutability": "view",
      "type": "function"
    },
    {
      "inputs": [
        {
          "internalType": "address",
          "name": "_token",
          "type": "address"
        }
      ],
      "name": "getTotalInvestByToken",
      "outputs": [
        {
          "internalType": "uint256",
          "name": "",
          "type": "uint256"
        }
      ],
      "stateMutability": "view",
      "type": "function"
    },
    {
      "inputs": [],
      "name": "getTotalMarket",
      "outputs": [
        {
          "internalType": "uint256",
          "name": "",
          "type": "uint256"
        }
      ],
      "stateMutability": "view",
      "type": "function"
    },
    {
      "inputs": [
        {
          "internalType": "uint256",
          "name": "",
          "type": "uint256"
        }
      ],
      "name": "idToMarketItems",
      "outputs": [
        {
          "internalType": "uint256",
          "name": "itemId",
          "type": "uint256"
        },
        {
          "internalType": "uint256",
          "name": "price",
          "type": "uint256"
        },
        {
          "internalType": "uint256",
          "name": "stock",
          "type": "uint256"
        },
        {
          "internalType": "address",
          "name": "tokenForSale",
          "type": "address"
        },
        {
          "internalType": "address",
          "name": "tokenForBuy",
          "type": "address"
        },
        {
          "internalType": "address",
          "name": "owner",
          "type": "address"
        }
      ],
      "stateMutability": "view",
      "type": "function"
    },
    {
      "inputs": [],
      "name": "owner",
      "outputs": [
        {
          "internalType": "address",
          "name": "",
          "type": "address"
        }
      ],
      "stateMutability": "view",
      "type": "function"
    },
    {
      "inputs": [
        {
          "internalType": "address",
          "name": "_tokenForSell",
          "type": "address"
        },
        {
          "internalType": "address",
          "name": "_tokenForBuy",
          "type": "address"
        },
        {
          "internalType": "uint256",
          "name": "_stock",
          "type": "uint256"
        },
        {
          "internalType": "uint256",
          "name": "_price",
          "type": "uint256"
        }
      ],
      "name": "selMyTokenWith",
      "outputs": [],
      "stateMutability": "nonpayable",
      "type": "function"
    },
    {
      "inputs": [
        {
          "internalType": "uint256",
          "name": "_id",
          "type": "uint256"
        },
        {
          "internalType": "uint256",
          "name": "_amount",
          "type": "uint256"
        }
      ],
      "name": "swapToken",
      "outputs": [],
      "stateMutability": "payable",
      "type": "function"
    }
  ],
  "bytecode": "0x608060405234801561001057600080fd5b5033600160006101000a81548173ffffffffffffffffffffffffffffffffffffffff021916908373ffffffffffffffffffffffffffffffffffffffff1602179055506111ef806100616000396000f3fe6080604052600436106100705760003560e01c80639991a9e71161004e5780639991a9e7146100f9578063af6bfc4614610122578063cd962fb81461015f578063f41e7e4d1461018a57610070565b8063513e6efb1461007557806361f6dfec146100915780638da5cb5b146100ce575b600080fd5b61008f600480360381019061008a9190610ca9565b6101cc565b005b34801561009d57600080fd5b506100b860048036038101906100b39190610ba2565b61021a565b6040516100c59190610f3e565b60405180910390f35b3480156100da57600080fd5b506100e36102b7565b6040516100f09190610e28565b60405180910390f35b34801561010557600080fd5b50610120600480360381019061011b9190610bcb565b6102dd565b005b34801561012e57600080fd5b5061014960048036038101906101449190610c57565b6105bd565b6040516101569190610f23565b60405180910390f35b34801561016b57600080fd5b50610174610710565b6040516101819190610f3e565b60405180910390f35b34801561019657600080fd5b506101b160048036038101906101ac9190610c57565b610721565b6040516101c396959493929190610f59565b60405180910390f35b6101d682826107bd565b6101e082826108d8565b6000600260008481526020019081526020016000209050600081600201549050828161020c9190611025565b826002018190555050505050565b60008082905060008173ffffffffffffffffffffffffffffffffffffffff166370a08231306040518263ffffffff1660e01b815260040161025b9190610e28565b60206040518083038186803b15801561027357600080fd5b505afa158015610287573d6000803e3d6000fd5b505050506040513d601f19601f820116820180604052508101906102ab9190610c80565b90508092505050919050565b600160009054906101000a900473ffffffffffffffffffffffffffffffffffffffff1681565b600073ffffffffffffffffffffffffffffffffffffffff168473ffffffffffffffffffffffffffffffffffffffff16141561034d576040517f08c379a000000000000000000000000000000000000000000000000000000000815260040161034490610ee3565b60405180910390fd5b60008211610390576040517f08c379a000000000000000000000000000000000000000000000000000000000815260040161038790610ea3565b60405180910390fd5b60008490508073ffffffffffffffffffffffffffffffffffffffff166323b872dd3330866040518463ffffffff1660e01b81526004016103d293929190610e43565b602060405180830381600087803b1580156103ec57600080fd5b505af1158015610400573d6000803e3d6000fd5b505050506040513d601f19601f820116820180604052508101906104249190610c2e565b5060006104316000610ab2565b905061043d6000610ac0565b6040518060c001604052808281526020018481526020018581526020018773ffffffffffffffffffffffffffffffffffffffff1681526020018673ffffffffffffffffffffffffffffffffffffffff1681526020013373ffffffffffffffffffffffffffffffffffffffff168152506002600083815260200190815260200160002060008201518160000155602082015181600101556040820151816002015560608201518160030160006101000a81548173ffffffffffffffffffffffffffffffffffffffff021916908373ffffffffffffffffffffffffffffffffffffffff16021790555060808201518160040160006101000a81548173ffffffffffffffffffffffffffffffffffffffff021916908373ffffffffffffffffffffffffffffffffffffffff16021790555060a08201518160050160006101000a81548173ffffffffffffffffffffffffffffffffffffffff021916908373ffffffffffffffffffffffffffffffffffffffff160217905550905050505050505050565b6105c5610ad6565b6000600260008481526020019081526020016000209050806040518060c00160405290816000820154815260200160018201548152602001600282015481526020016003820160009054906101000a900473ffffffffffffffffffffffffffffffffffffffff1673ffffffffffffffffffffffffffffffffffffffff1673ffffffffffffffffffffffffffffffffffffffff1681526020016004820160009054906101000a900473ffffffffffffffffffffffffffffffffffffffff1673ffffffffffffffffffffffffffffffffffffffff1673ffffffffffffffffffffffffffffffffffffffff1681526020016005820160009054906101000a900473ffffffffffffffffffffffffffffffffffffffff1673ffffffffffffffffffffffffffffffffffffffff1673ffffffffffffffffffffffffffffffffffffffff1681525050915050919050565b600061071c6000610ab2565b905090565b60026020528060005260406000206000915090508060000154908060010154908060020154908060030160009054906101000a900473ffffffffffffffffffffffffffffffffffffffff16908060040160009054906101000a900473ffffffffffffffffffffffffffffffffffffffff16908060050160009054906101000a900473ffffffffffffffffffffffffffffffffffffffff16905086565b600060026000848152602001908152602001600020905060008160030160009054906101000a900473ffffffffffffffffffffffffffffffffffffffff1690508282600201541015610844576040517f08c379a000000000000000000000000000000000000000000000000000000000815260040161083b90610f03565b60405180910390fd5b8073ffffffffffffffffffffffffffffffffffffffff1663a9059cbb33856040518363ffffffff1660e01b815260040161087f929190610e7a565b602060405180830381600087803b15801561089957600080fd5b505af11580156108ad573d6000803e3d6000fd5b505050506040513d601f19601f820116820180604052508101906108d19190610c2e565b5050505050565b600060026000848152602001908152602001600020905060008160040160009054906101000a900473ffffffffffffffffffffffffffffffffffffffff169050600083836001015461092a9190610fcb565b9050808273ffffffffffffffffffffffffffffffffffffffff166370a08231336040518263ffffffff1660e01b81526004016109669190610e28565b60206040518083038186803b15801561097e57600080fd5b505afa158015610992573d6000803e3d6000fd5b505050506040513d601f19601f820116820180604052508101906109b69190610c80565b10156109f7576040517f08c379a00000000000000000000000000000000000000000000000000000000081526004016109ee90610ec3565b60405180910390fd5b8173ffffffffffffffffffffffffffffffffffffffff166323b872dd338560050160009054906101000a900473ffffffffffffffffffffffffffffffffffffffff16846040518463ffffffff1660e01b8152600401610a5893929190610e43565b602060405180830381600087803b158015610a7257600080fd5b505af1158015610a86573d6000803e3d6000fd5b505050506040513d601f19601f82011682018060405250810190610aaa9190610c2e565b505050505050565b600081600001549050919050565b6001816000016000828254019250508190555050565b6040518060c00160405280600081526020016000815260200160008152602001600073ffffffffffffffffffffffffffffffffffffffff168152602001600073ffffffffffffffffffffffffffffffffffffffff168152602001600073ffffffffffffffffffffffffffffffffffffffff1681525090565b600081359050610b5d81611174565b92915050565b600081519050610b728161118b565b92915050565b600081359050610b87816111a2565b92915050565b600081519050610b9c816111a2565b92915050565b600060208284031215610bb457600080fd5b6000610bc284828501610b4e565b91505092915050565b60008060008060808587031215610be157600080fd5b6000610bef87828801610b4e565b9450506020610c0087828801610b4e565b9350506040610c1187828801610b78565b9250506060610c2287828801610b78565b91505092959194509250565b600060208284031215610c4057600080fd5b6000610c4e84828501610b63565b91505092915050565b600060208284031215610c6957600080fd5b6000610c7784828501610b78565b91505092915050565b600060208284031215610c9257600080fd5b6000610ca084828501610b8d565b91505092915050565b60008060408385031215610cbc57600080fd5b6000610cca85828601610b78565b9250506020610cdb85828601610b78565b9150509250929050565b610cee81611059565b82525050565b610cfd81611059565b82525050565b6000610d10601183610fba565b9150610d1b826110d0565b602082019050919050565b6000610d33601a83610fba565b9150610d3e826110f9565b602082019050919050565b6000610d56601283610fba565b9150610d6182611122565b602082019050919050565b6000610d79601d83610fba565b9150610d848261114b565b602082019050919050565b60c082016000820151610da56000850182610e0a565b506020820151610db86020850182610e0a565b506040820151610dcb6040850182610e0a565b506060820151610dde6060850182610ce5565b506080820151610df16080850182610ce5565b5060a0820151610e0460a0850182610ce5565b50505050565b610e1381611097565b82525050565b610e2281611097565b82525050565b6000602082019050610e3d6000830184610cf4565b92915050565b6000606082019050610e586000830186610cf4565b610e656020830185610cf4565b610e726040830184610e19565b949350505050565b6000604082019050610e8f6000830185610cf4565b610e9c6020830184610e19565b9392505050565b60006020820190508181036000830152610ebc81610d03565b9050919050565b60006020820190508181036000830152610edc81610d26565b9050919050565b60006020820190508181036000830152610efc81610d49565b9050919050565b60006020820190508181036000830152610f1c81610d6c565b9050919050565b600060c082019050610f386000830184610d8f565b92915050565b6000602082019050610f536000830184610e19565b92915050565b600060c082019050610f6e6000830189610e19565b610f7b6020830188610e19565b610f886040830187610e19565b610f956060830186610cf4565b610fa26080830185610cf4565b610faf60a0830184610cf4565b979650505050505050565b600082825260208201905092915050565b6000610fd682611097565b9150610fe183611097565b9250817fffffffffffffffffffffffffffffffffffffffffffffffffffffffffffffffff048311821515161561101a576110196110a1565b5b828202905092915050565b600061103082611097565b915061103b83611097565b92508282101561104e5761104d6110a1565b5b828203905092915050565b600061106482611077565b9050919050565b60008115159050919050565b600073ffffffffffffffffffffffffffffffffffffffff82169050919050565b6000819050919050565b7f4e487b7100000000000000000000000000000000000000000000000000000000600052601160045260246000fd5b7f73746f6b206973206e6f742076616c6964000000000000000000000000000000600082015250565b7f62616c616e63652075736572206973206e6f7420656e6f756768000000000000600082015250565b7f746f6b656e206973206e6f742076616c69640000000000000000000000000000600082015250565b7f636f6e747261637420696e76657374206973206e6f7420656e6f756768000000600082015250565b61117d81611059565b811461118857600080fd5b50565b6111948161106b565b811461119f57600080fd5b50565b6111ab81611097565b81146111b657600080fd5b5056fea2646970667358221220967a365bde5917cc7c6cfb1ce5d17692e149504c711106fe49382cd3d62df80d64736f6c63430008040033",
  "linkReferences": {},
  "deployedLinkReferences": {}
}