{
  "_format": "hh-sol-artifact-1",
  "contractName": "WalletInvest",
  "sourceName": "contracts/WalletInvest.sol",
  "abi": [
    {
      "inputs": [],
      "stateMutability": "nonpayable",
      "type": "constructor"
    },
    {
      "anonymous": false,
      "inputs": [
        {
          "indexed": true,
          "internalType": "address",
          "name": "sender",
          "type": "address"
        },
        {
          "indexed": true,
          "internalType": "uint256",
          "name": "id",
          "type": "uint256"
        },
        {
          "indexed": true,
          "internalType": "address",
          "name": "token",
          "type": "address"
        },
        {
          "indexed": false,
          "internalType": "uint256",
          "name": "balance",
          "type": "uint256"
        }
      ],
      "name": "UserInvestToken",
      "type": "event"
    },
    {
      "inputs": [
        {
          "internalType": "address",
          "name": "_token",
          "type": "address"
        }
      ],
      "name": "getAddressTokenId",
      "outputs": [
        {
          "internalType": "uint256",
          "name": "",
          "type": "uint256"
        }
      ],
      "stateMutability": "view",
      "type": "function"
    },
    {
      "inputs": [
        {
          "internalType": "address",
          "name": "_token",
          "type": "address"
        }
      ],
      "name": "getTotalInvestByToken",
      "outputs": [
        {
          "internalType": "uint256",
          "name": "",
          "type": "uint256"
        }
      ],
      "stateMutability": "view",
      "type": "function"
    },
    {
      "inputs": [
        {
          "internalType": "uint256",
          "name": "",
          "type": "uint256"
        }
      ],
      "name": "idToMarketItems",
      "outputs": [
        {
          "internalType": "uint256",
          "name": "itemId",
          "type": "uint256"
        },
        {
          "internalType": "uint256",
          "name": "price",
          "type": "uint256"
        },
        {
          "internalType": "uint256",
          "name": "stock",
          "type": "uint256"
        },
        {
          "internalType": "address",
          "name": "tokenForSale",
          "type": "address"
        },
        {
          "internalType": "address",
          "name": "tokenForBuy",
          "type": "address"
        },
        {
          "internalType": "address",
          "name": "owner",
          "type": "address"
        }
      ],
      "stateMutability": "view",
      "type": "function"
    },
    {
      "inputs": [
        {
          "internalType": "uint256",
          "name": "",
          "type": "uint256"
        }
      ],
      "name": "idToWallets",
      "outputs": [
        {
          "internalType": "uint256",
          "name": "id",
          "type": "uint256"
        },
        {
          "internalType": "address",
          "name": "owner",
          "type": "address"
        },
        {
          "internalType": "address",
          "name": "token",
          "type": "address"
        },
        {
          "internalType": "uint256",
          "name": "balance",
          "type": "uint256"
        }
      ],
      "stateMutability": "view",
      "type": "function"
    },
    {
      "inputs": [
        {
          "internalType": "address",
          "name": "_token",
          "type": "address"
        },
        {
          "internalType": "uint256",
          "name": "_amoun",
          "type": "uint256"
        }
      ],
      "name": "investToken",
      "outputs": [],
      "stateMutability": "payable",
      "type": "function"
    },
    {
      "inputs": [],
      "name": "owner",
      "outputs": [
        {
          "internalType": "address",
          "name": "",
          "type": "address"
        }
      ],
      "stateMutability": "view",
      "type": "function"
    },
    {
      "inputs": [
        {
          "internalType": "address",
          "name": "_tokenForSell",
          "type": "address"
        },
        {
          "internalType": "address",
          "name": "_tokenForBuy",
          "type": "address"
        },
        {
          "internalType": "uint256",
          "name": "_stock",
          "type": "uint256"
        },
        {
          "internalType": "uint256",
          "name": "_price",
          "type": "uint256"
        }
      ],
      "name": "selMyTokenWith",
      "outputs": [],
      "stateMutability": "nonpayable",
      "type": "function"
    },
    {
      "inputs": [
        {
          "internalType": "uint256",
          "name": "_id",
          "type": "uint256"
        },
        {
          "internalType": "uint256",
          "name": "_amount",
          "type": "uint256"
        }
      ],
      "name": "swapToken",
      "outputs": [],
      "stateMutability": "payable",
      "type": "function"
    }
  ],
  "bytecode": "0x608060405234801561001057600080fd5b5033600460006101000a81548173ffffffffffffffffffffffffffffffffffffffff021916908373ffffffffffffffffffffffffffffffffffffffff1602179055506114ea806100616000396000f3fe60806040526004361061007b5760003560e01c80638da5cb5b1161004e5780638da5cb5b146101565780639991a9e714610181578063de8971fc146101aa578063f41e7e4d146101c65761007b565b806331021ce314610080578063513e6efb146100bd57806361f6dfec146100d957806380ae467d14610116575b600080fd5b34801561008c57600080fd5b506100a760048036038101906100a29190610e1b565b610208565b6040516100b49190611182565b60405180910390f35b6100d760048036038101906100d29190610f5e565b6102c8565b005b3480156100e557600080fd5b5061010060048036038101906100fb9190610e1b565b61059b565b60405161010d9190611182565b60405180910390f35b34801561012257600080fd5b5061013d60048036038101906101389190610f0c565b610638565b60405161014d949392919061119d565b60405180910390f35b34801561016257600080fd5b5061016b6106a8565b6040516101789190611067565b60405180910390f35b34801561018d57600080fd5b506101a860048036038101906101a39190610e44565b6106ce565b005b6101c460048036038101906101bf9190610ea7565b6109ae565b005b3480156101d257600080fd5b506101ed60048036038101906101e89190610f0c565b610d07565b6040516101ff969594939291906111e2565b60405180910390f35b6000806000905060005b61021c6002610da3565b8110156102be578373ffffffffffffffffffffffffffffffffffffffff166005600083815260200190815260200160002060020160009054906101000a900473ffffffffffffffffffffffffffffffffffffffff1673ffffffffffffffffffffffffffffffffffffffff1614156102ab57600560008281526020019081526020016000206000015491506102be565b80806102b69061132a565b915050610212565b5080915050919050565b600060066000848152602001908152602001600020905060008160030160009054906101000a900473ffffffffffffffffffffffffffffffffffffffff169050828260020154101561034f576040517f08c379a000000000000000000000000000000000000000000000000000000000815260040161034690611162565b60405180910390fd5b8073ffffffffffffffffffffffffffffffffffffffff1663a9059cbb33856040518363ffffffff1660e01b815260040161038a9291906110b9565b602060405180830381600087803b1580156103a457600080fd5b505af11580156103b8573d6000803e3d6000fd5b505050506040513d601f19601f820116820180604052508101906103dc9190610ee3565b5060008260040160009054906101000a900473ffffffffffffffffffffffffffffffffffffffff16905060008484600101546104189190611254565b9050808273ffffffffffffffffffffffffffffffffffffffff166370a08231336040518263ffffffff1660e01b81526004016104549190611067565b60206040518083038186803b15801561046c57600080fd5b505afa158015610480573d6000803e3d6000fd5b505050506040513d601f19601f820116820180604052508101906104a49190610f35565b10156104e5576040517f08c379a00000000000000000000000000000000000000000000000000000000081526004016104dc90611102565b60405180910390fd5b8173ffffffffffffffffffffffffffffffffffffffff166323b872dd3330846040518463ffffffff1660e01b815260040161052293929190611082565b602060405180830381600087803b15801561053c57600080fd5b505af1158015610550573d6000803e3d6000fd5b505050506040513d601f19601f820116820180604052508101906105749190610ee3565b50600084600201549050858161058a91906112ae565b856002018190555050505050505050565b60008082905060008173ffffffffffffffffffffffffffffffffffffffff166370a08231306040518263ffffffff1660e01b81526004016105dc9190611067565b60206040518083038186803b1580156105f457600080fd5b505afa158015610608573d6000803e3d6000fd5b505050506040513d601f19601f8201168201806040525081019061062c9190610f35565b90508092505050919050565b60056020528060005260406000206000915090508060000154908060010160009054906101000a900473ffffffffffffffffffffffffffffffffffffffff16908060020160009054906101000a900473ffffffffffffffffffffffffffffffffffffffff16908060030154905084565b600460009054906101000a900473ffffffffffffffffffffffffffffffffffffffff1681565b600073ffffffffffffffffffffffffffffffffffffffff168473ffffffffffffffffffffffffffffffffffffffff16141561073e576040517f08c379a000000000000000000000000000000000000000000000000000000000815260040161073590611122565b60405180910390fd5b60008211610781576040517f08c379a0000000000000000000000000000000000000000000000000000000008152600401610778906110e2565b60405180910390fd5b60008490508073ffffffffffffffffffffffffffffffffffffffff166323b872dd3330866040518463ffffffff1660e01b81526004016107c393929190611082565b602060405180830381600087803b1580156107dd57600080fd5b505af11580156107f1573d6000803e3d6000fd5b505050506040513d601f19601f820116820180604052508101906108159190610ee3565b5060006108226002610da3565b905061082e6002610db1565b6040518060c001604052808281526020018481526020018581526020018773ffffffffffffffffffffffffffffffffffffffff1681526020018673ffffffffffffffffffffffffffffffffffffffff1681526020013373ffffffffffffffffffffffffffffffffffffffff168152506006600083815260200190815260200160002060008201518160000155602082015181600101556040820151816002015560608201518160030160006101000a81548173ffffffffffffffffffffffffffffffffffffffff021916908373ffffffffffffffffffffffffffffffffffffffff16021790555060808201518160040160006101000a81548173ffffffffffffffffffffffffffffffffffffffff021916908373ffffffffffffffffffffffffffffffffffffffff16021790555060a08201518160050160006101000a81548173ffffffffffffffffffffffffffffffffffffffff021916908373ffffffffffffffffffffffffffffffffffffffff160217905550905050505050505050565b600073ffffffffffffffffffffffffffffffffffffffff168273ffffffffffffffffffffffffffffffffffffffff161415610a1e576040517f08c379a0000000000000000000000000000000000000000000000000000000008152600401610a1590611122565b60405180910390fd5b6000829050818173ffffffffffffffffffffffffffffffffffffffff166370a08231336040518263ffffffff1660e01b8152600401610a5d9190611067565b60206040518083038186803b158015610a7557600080fd5b505afa158015610a89573d6000803e3d6000fd5b505050506040513d601f19601f82011682018060405250810190610aad9190610f35565b1015610aee576040517f08c379a0000000000000000000000000000000000000000000000000000000008152600401610ae590611142565b60405180910390fd5b8073ffffffffffffffffffffffffffffffffffffffff166323b872dd3330856040518463ffffffff1660e01b8152600401610b2b93929190611082565b602060405180830381600087803b158015610b4557600080fd5b505af1158015610b59573d6000803e3d6000fd5b505050506040513d601f19601f82011682018060405250810190610b7d9190610ee3565b506000610b8a6000610da3565b9050610b966000610db1565b60405180608001604052808281526020013373ffffffffffffffffffffffffffffffffffffffff1681526020018573ffffffffffffffffffffffffffffffffffffffff16815260200184815250600560008381526020019081526020016000206000820151816000015560208201518160010160006101000a81548173ffffffffffffffffffffffffffffffffffffffff021916908373ffffffffffffffffffffffffffffffffffffffff16021790555060408201518160020160006101000a81548173ffffffffffffffffffffffffffffffffffffffff021916908373ffffffffffffffffffffffffffffffffffffffff160217905550606082015181600301559050508373ffffffffffffffffffffffffffffffffffffffff16813373ffffffffffffffffffffffffffffffffffffffff167ff1da9bc2ee7742b9fbad039926849213f86ddb5b95737f7c763a940f6ac2f8d386604051610cf99190611182565b60405180910390a450505050565b60066020528060005260406000206000915090508060000154908060010154908060020154908060030160009054906101000a900473ffffffffffffffffffffffffffffffffffffffff16908060040160009054906101000a900473ffffffffffffffffffffffffffffffffffffffff16908060050160009054906101000a900473ffffffffffffffffffffffffffffffffffffffff16905086565b600081600001549050919050565b6001816000016000828254019250508190555050565b600081359050610dd68161146f565b92915050565b600081519050610deb81611486565b92915050565b600081359050610e008161149d565b92915050565b600081519050610e158161149d565b92915050565b600060208284031215610e2d57600080fd5b6000610e3b84828501610dc7565b91505092915050565b60008060008060808587031215610e5a57600080fd5b6000610e6887828801610dc7565b9450506020610e7987828801610dc7565b9350506040610e8a87828801610df1565b9250506060610e9b87828801610df1565b91505092959194509250565b60008060408385031215610eba57600080fd5b6000610ec885828601610dc7565b9250506020610ed985828601610df1565b9150509250929050565b600060208284031215610ef557600080fd5b6000610f0384828501610ddc565b91505092915050565b600060208284031215610f1e57600080fd5b6000610f2c84828501610df1565b91505092915050565b600060208284031215610f4757600080fd5b6000610f5584828501610e06565b91505092915050565b60008060408385031215610f7157600080fd5b6000610f7f85828601610df1565b9250506020610f9085828601610df1565b9150509250929050565b610fa3816112e2565b82525050565b6000610fb6601183611243565b9150610fc1826113a2565b602082019050919050565b6000610fd9601a83611243565b9150610fe4826113cb565b602082019050919050565b6000610ffc601283611243565b9150611007826113f4565b602082019050919050565b600061101f601583611243565b915061102a8261141d565b602082019050919050565b6000611042601d83611243565b915061104d82611446565b602082019050919050565b61106181611320565b82525050565b600060208201905061107c6000830184610f9a565b92915050565b60006060820190506110976000830186610f9a565b6110a46020830185610f9a565b6110b16040830184611058565b949350505050565b60006040820190506110ce6000830185610f9a565b6110db6020830184611058565b9392505050565b600060208201905081810360008301526110fb81610fa9565b9050919050565b6000602082019050818103600083015261111b81610fcc565b9050919050565b6000602082019050818103600083015261113b81610fef565b9050919050565b6000602082019050818103600083015261115b81611012565b9050919050565b6000602082019050818103600083015261117b81611035565b9050919050565b60006020820190506111976000830184611058565b92915050565b60006080820190506111b26000830187611058565b6111bf6020830186610f9a565b6111cc6040830185610f9a565b6111d96060830184611058565b95945050505050565b600060c0820190506111f76000830189611058565b6112046020830188611058565b6112116040830187611058565b61121e6060830186610f9a565b61122b6080830185610f9a565b61123860a0830184610f9a565b979650505050505050565b600082825260208201905092915050565b600061125f82611320565b915061126a83611320565b9250817fffffffffffffffffffffffffffffffffffffffffffffffffffffffffffffffff04831182151516156112a3576112a2611373565b5b828202905092915050565b60006112b982611320565b91506112c483611320565b9250828210156112d7576112d6611373565b5b828203905092915050565b60006112ed82611300565b9050919050565b60008115159050919050565b600073ffffffffffffffffffffffffffffffffffffffff82169050919050565b6000819050919050565b600061133582611320565b91507fffffffffffffffffffffffffffffffffffffffffffffffffffffffffffffffff82141561136857611367611373565b5b600182019050919050565b7f4e487b7100000000000000000000000000000000000000000000000000000000600052601160045260246000fd5b7f73746f6b206973206e6f742076616c6964000000000000000000000000000000600082015250565b7f62616c616e63652075736572206973206e6f7420656e6f756768000000000000600082015250565b7f746f6b656e206973206e6f742076616c69640000000000000000000000000000600082015250565b7f62616c616e6365206973206e6f7420656e6f7567680000000000000000000000600082015250565b7f636f6e747261637420696e76657374206973206e6f7420656e6f756768000000600082015250565b611478816112e2565b811461148357600080fd5b50565b61148f816112f4565b811461149a57600080fd5b50565b6114a681611320565b81146114b157600080fd5b5056fea26469706673582212207ff6c8d3f79af25b780097111fb90783e3c67954fc8c71963885ac3440d1b6ac64736f6c63430008040033",
  "linkReferences": {},
  "deployedLinkReferences": {}
}