{
  "_format": "hh-sol-artifact-1",
  "contractName": "WalletInvest",
  "sourceName": "contracts/WalletInvest.sol",
  "abi": [
    {
      "anonymous": false,
      "inputs": [
        {
          "indexed": true,
          "internalType": "uint256",
          "name": "id",
          "type": "uint256"
        },
        {
          "indexed": false,
          "internalType": "uint256",
          "name": "price",
          "type": "uint256"
        },
        {
          "indexed": false,
          "internalType": "uint256",
          "name": "stock",
          "type": "uint256"
        },
        {
          "indexed": false,
          "internalType": "address",
          "name": "tokenForSale",
          "type": "address"
        },
        {
          "indexed": false,
          "internalType": "address",
          "name": "tokenForBuy",
          "type": "address"
        },
        {
          "indexed": false,
          "internalType": "address",
          "name": "owner",
          "type": "address"
        }
      ],
      "name": "CreateMarket",
      "type": "event"
    },
    {
      "anonymous": false,
      "inputs": [
        {
          "indexed": false,
          "internalType": "uint8",
          "name": "version",
          "type": "uint8"
        }
      ],
      "name": "Initialized",
      "type": "event"
    },
    {
      "inputs": [
        {
          "internalType": "uint256",
          "name": "_id",
          "type": "uint256"
        }
      ],
      "name": "getListTokenById",
      "outputs": [
        {
          "components": [
            {
              "internalType": "uint256",
              "name": "itemId",
              "type": "uint256"
            },
            {
              "internalType": "uint256",
              "name": "price",
              "type": "uint256"
            },
            {
              "internalType": "uint256",
              "name": "stock",
              "type": "uint256"
            },
            {
              "internalType": "address",
              "name": "tokenForSale",
              "type": "address"
            },
            {
              "internalType": "address",
              "name": "tokenForBuy",
              "type": "address"
            },
            {
              "internalType": "address",
              "name": "owner",
              "type": "address"
            }
          ],
          "internalType": "struct MarketItem",
          "name": "",
          "type": "tuple"
        }
      ],
      "stateMutability": "view",
      "type": "function"
    },
    {
      "inputs": [
        {
          "internalType": "address",
          "name": "_token",
          "type": "address"
        }
      ],
      "name": "getTotalInvestByToken",
      "outputs": [
        {
          "internalType": "uint256",
          "name": "",
          "type": "uint256"
        }
      ],
      "stateMutability": "view",
      "type": "function"
    },
    {
      "inputs": [],
      "name": "getTotalMarket",
      "outputs": [
        {
          "internalType": "uint256",
          "name": "",
          "type": "uint256"
        }
      ],
      "stateMutability": "view",
      "type": "function"
    },
    {
      "inputs": [
        {
          "internalType": "uint256",
          "name": "",
          "type": "uint256"
        }
      ],
      "name": "idToMarketItems",
      "outputs": [
        {
          "internalType": "uint256",
          "name": "itemId",
          "type": "uint256"
        },
        {
          "internalType": "uint256",
          "name": "price",
          "type": "uint256"
        },
        {
          "internalType": "uint256",
          "name": "stock",
          "type": "uint256"
        },
        {
          "internalType": "address",
          "name": "tokenForSale",
          "type": "address"
        },
        {
          "internalType": "address",
          "name": "tokenForBuy",
          "type": "address"
        },
        {
          "internalType": "address",
          "name": "owner",
          "type": "address"
        }
      ],
      "stateMutability": "view",
      "type": "function"
    },
    {
      "inputs": [],
      "name": "initialize",
      "outputs": [],
      "stateMutability": "nonpayable",
      "type": "function"
    },
    {
      "inputs": [],
      "name": "owner",
      "outputs": [
        {
          "internalType": "address",
          "name": "",
          "type": "address"
        }
      ],
      "stateMutability": "view",
      "type": "function"
    },
    {
      "inputs": [
        {
          "internalType": "address",
          "name": "_tokenForSell",
          "type": "address"
        },
        {
          "internalType": "address",
          "name": "_tokenForBuy",
          "type": "address"
        },
        {
          "internalType": "uint256",
          "name": "_stock",
          "type": "uint256"
        },
        {
          "internalType": "uint256",
          "name": "_price",
          "type": "uint256"
        }
      ],
      "name": "selMyTokenWith",
      "outputs": [],
      "stateMutability": "nonpayable",
      "type": "function"
    },
    {
      "inputs": [
        {
          "internalType": "uint256",
          "name": "_id",
          "type": "uint256"
        },
        {
          "internalType": "uint256",
          "name": "_amount",
          "type": "uint256"
        }
      ],
      "name": "swapToken",
      "outputs": [],
      "stateMutability": "payable",
      "type": "function"
    }
  ],
  "bytecode": "0x608060405234801561001057600080fd5b506114cc806100206000396000f3fe60806040526004361061007b5760003560e01c80639991a9e71161004e5780639991a9e71461011b578063af6bfc4614610144578063cd962fb814610181578063f41e7e4d146101ac5761007b565b8063513e6efb1461008057806361f6dfec1461009c5780638129fc1c146100d95780638da5cb5b146100f0575b600080fd5b61009a60048036038101906100959190610eab565b6101ee565b005b3480156100a857600080fd5b506100c360048036038101906100be9190610da4565b61023c565b6040516100d091906111ad565b60405180910390f35b3480156100e557600080fd5b506100ee6102d9565b005b3480156100fc57600080fd5b506101056103a6565b604051610112919061105c565b60405180910390f35b34801561012757600080fd5b50610142600480360381019061013d9190610dcd565b6103cc565b005b34801561015057600080fd5b5061016b60048036038101906101669190610e59565b6106ac565b6040516101789190611192565b60405180910390f35b34801561018d57600080fd5b506101966107ff565b6040516101a391906111ad565b60405180910390f35b3480156101b857600080fd5b506101d360048036038101906101ce9190610e59565b610810565b6040516101e5969594939291906111c8565b60405180910390f35b6101f882826108ac565b61020282826109c7565b6000600360008481526020019081526020016000209050600081600201549050828161022e9190611294565b826002018190555050505050565b60008082905060008173ffffffffffffffffffffffffffffffffffffffff166370a08231306040518263ffffffff1660e01b815260040161027d919061105c565b60206040518083038186803b15801561029557600080fd5b505afa1580156102a9573d6000803e3d6000fd5b505050506040513d601f19601f820116820180604052508101906102cd9190610e82565b90508092505050919050565b60006102e56001610ba1565b90508015610309576001600060016101000a81548160ff0219169083151502179055505b33600260006101000a81548173ffffffffffffffffffffffffffffffffffffffff021916908373ffffffffffffffffffffffffffffffffffffffff16021790555080156103a35760008060016101000a81548160ff0219169083151502179055507f7f26b83ff96e1f2b6a682f133852f6798a09c465da95921460cefb3847402498600160405161039a91906110d7565b60405180910390a15b50565b600260009054906101000a900473ffffffffffffffffffffffffffffffffffffffff1681565b600073ffffffffffffffffffffffffffffffffffffffff168473ffffffffffffffffffffffffffffffffffffffff16141561043c576040517f08c379a000000000000000000000000000000000000000000000000000000000815260040161043390611152565b60405180910390fd5b6000821161047f576040517f08c379a0000000000000000000000000000000000000000000000000000000008152600401610476906110f2565b60405180910390fd5b60008490508073ffffffffffffffffffffffffffffffffffffffff166323b872dd3330866040518463ffffffff1660e01b81526004016104c193929190611077565b602060405180830381600087803b1580156104db57600080fd5b505af11580156104ef573d6000803e3d6000fd5b505050506040513d601f19601f820116820180604052508101906105139190610e30565b5060006105206001610c91565b905061052c6001610c9f565b6040518060c001604052808281526020018481526020018581526020018773ffffffffffffffffffffffffffffffffffffffff1681526020018673ffffffffffffffffffffffffffffffffffffffff1681526020013373ffffffffffffffffffffffffffffffffffffffff168152506003600083815260200190815260200160002060008201518160000155602082015181600101556040820151816002015560608201518160030160006101000a81548173ffffffffffffffffffffffffffffffffffffffff021916908373ffffffffffffffffffffffffffffffffffffffff16021790555060808201518160040160006101000a81548173ffffffffffffffffffffffffffffffffffffffff021916908373ffffffffffffffffffffffffffffffffffffffff16021790555060a08201518160050160006101000a81548173ffffffffffffffffffffffffffffffffffffffff021916908373ffffffffffffffffffffffffffffffffffffffff160217905550905050505050505050565b6106b4610cd8565b6000600360008481526020019081526020016000209050806040518060c00160405290816000820154815260200160018201548152602001600282015481526020016003820160009054906101000a900473ffffffffffffffffffffffffffffffffffffffff1673ffffffffffffffffffffffffffffffffffffffff1673ffffffffffffffffffffffffffffffffffffffff1681526020016004820160009054906101000a900473ffffffffffffffffffffffffffffffffffffffff1673ffffffffffffffffffffffffffffffffffffffff1673ffffffffffffffffffffffffffffffffffffffff1681526020016005820160009054906101000a900473ffffffffffffffffffffffffffffffffffffffff1673ffffffffffffffffffffffffffffffffffffffff1673ffffffffffffffffffffffffffffffffffffffff1681525050915050919050565b600061080b6001610c91565b905090565b60036020528060005260406000206000915090508060000154908060010154908060020154908060030160009054906101000a900473ffffffffffffffffffffffffffffffffffffffff16908060040160009054906101000a900473ffffffffffffffffffffffffffffffffffffffff16908060050160009054906101000a900473ffffffffffffffffffffffffffffffffffffffff16905086565b600060036000848152602001908152602001600020905060008160030160009054906101000a900473ffffffffffffffffffffffffffffffffffffffff1690508282600201541015610933576040517f08c379a000000000000000000000000000000000000000000000000000000000815260040161092a90611172565b60405180910390fd5b8073ffffffffffffffffffffffffffffffffffffffff1663a9059cbb33856040518363ffffffff1660e01b815260040161096e9291906110ae565b602060405180830381600087803b15801561098857600080fd5b505af115801561099c573d6000803e3d6000fd5b505050506040513d601f19601f820116820180604052508101906109c09190610e30565b5050505050565b600060036000848152602001908152602001600020905060008160040160009054906101000a900473ffffffffffffffffffffffffffffffffffffffff1690506000838360010154610a19919061123a565b9050808273ffffffffffffffffffffffffffffffffffffffff166370a08231336040518263ffffffff1660e01b8152600401610a55919061105c565b60206040518083038186803b158015610a6d57600080fd5b505afa158015610a81573d6000803e3d6000fd5b505050506040513d601f19601f82011682018060405250810190610aa59190610e82565b1015610ae6576040517f08c379a0000000000000000000000000000000000000000000000000000000008152600401610add90611132565b60405180910390fd5b8173ffffffffffffffffffffffffffffffffffffffff166323b872dd338560050160009054906101000a900473ffffffffffffffffffffffffffffffffffffffff16846040518463ffffffff1660e01b8152600401610b4793929190611077565b602060405180830381600087803b158015610b6157600080fd5b505af1158015610b75573d6000803e3d6000fd5b505050506040513d601f19601f82011682018060405250810190610b999190610e30565b505050505050565b60008060019054906101000a900460ff1615610c185760018260ff16148015610bd05750610bce30610cb5565b155b610c0f576040517f08c379a0000000000000000000000000000000000000000000000000000000008152600401610c0690611112565b60405180910390fd5b60009050610c8c565b8160ff1660008054906101000a900460ff1660ff1610610c6d576040517f08c379a0000000000000000000000000000000000000000000000000000000008152600401610c6490611112565b60405180910390fd5b816000806101000a81548160ff021916908360ff160217905550600190505b919050565b600081600001549050919050565b6001816000016000828254019250508190555050565b6000808273ffffffffffffffffffffffffffffffffffffffff163b119050919050565b6040518060c00160405280600081526020016000815260200160008152602001600073ffffffffffffffffffffffffffffffffffffffff168152602001600073ffffffffffffffffffffffffffffffffffffffff168152602001600073ffffffffffffffffffffffffffffffffffffffff1681525090565b600081359050610d5f81611451565b92915050565b600081519050610d7481611468565b92915050565b600081359050610d898161147f565b92915050565b600081519050610d9e8161147f565b92915050565b600060208284031215610db657600080fd5b6000610dc484828501610d50565b91505092915050565b60008060008060808587031215610de357600080fd5b6000610df187828801610d50565b9450506020610e0287828801610d50565b9350506040610e1387828801610d7a565b9250506060610e2487828801610d7a565b91505092959194509250565b600060208284031215610e4257600080fd5b6000610e5084828501610d65565b91505092915050565b600060208284031215610e6b57600080fd5b6000610e7984828501610d7a565b91505092915050565b600060208284031215610e9457600080fd5b6000610ea284828501610d8f565b91505092915050565b60008060408385031215610ebe57600080fd5b6000610ecc85828601610d7a565b9250506020610edd85828601610d7a565b9150509250929050565b610ef0816112c8565b82525050565b610eff816112c8565b82525050565b610f0e8161131d565b82525050565b6000610f21601183611229565b9150610f2c8261135e565b602082019050919050565b6000610f44602e83611229565b9150610f4f82611387565b604082019050919050565b6000610f67601a83611229565b9150610f72826113d6565b602082019050919050565b6000610f8a601283611229565b9150610f95826113ff565b602082019050919050565b6000610fad601d83611229565b9150610fb882611428565b602082019050919050565b60c082016000820151610fd9600085018261103e565b506020820151610fec602085018261103e565b506040820151610fff604085018261103e565b5060608201516110126060850182610ee7565b5060808201516110256080850182610ee7565b5060a082015161103860a0850182610ee7565b50505050565b61104781611306565b82525050565b61105681611306565b82525050565b60006020820190506110716000830184610ef6565b92915050565b600060608201905061108c6000830186610ef6565b6110996020830185610ef6565b6110a6604083018461104d565b949350505050565b60006040820190506110c36000830185610ef6565b6110d0602083018461104d565b9392505050565b60006020820190506110ec6000830184610f05565b92915050565b6000602082019050818103600083015261110b81610f14565b9050919050565b6000602082019050818103600083015261112b81610f37565b9050919050565b6000602082019050818103600083015261114b81610f5a565b9050919050565b6000602082019050818103600083015261116b81610f7d565b9050919050565b6000602082019050818103600083015261118b81610fa0565b9050919050565b600060c0820190506111a76000830184610fc3565b92915050565b60006020820190506111c2600083018461104d565b92915050565b600060c0820190506111dd600083018961104d565b6111ea602083018861104d565b6111f7604083018761104d565b6112046060830186610ef6565b6112116080830185610ef6565b61121e60a0830184610ef6565b979650505050505050565b600082825260208201905092915050565b600061124582611306565b915061125083611306565b9250817fffffffffffffffffffffffffffffffffffffffffffffffffffffffffffffffff04831182151516156112895761128861132f565b5b828202905092915050565b600061129f82611306565b91506112aa83611306565b9250828210156112bd576112bc61132f565b5b828203905092915050565b60006112d3826112e6565b9050919050565b60008115159050919050565b600073ffffffffffffffffffffffffffffffffffffffff82169050919050565b6000819050919050565b600060ff82169050919050565b600061132882611310565b9050919050565b7f4e487b7100000000000000000000000000000000000000000000000000000000600052601160045260246000fd5b7f73746f6b206973206e6f742076616c6964000000000000000000000000000000600082015250565b7f496e697469616c697a61626c653a20636f6e747261637420697320616c72656160008201527f647920696e697469616c697a6564000000000000000000000000000000000000602082015250565b7f62616c616e63652075736572206973206e6f7420656e6f756768000000000000600082015250565b7f746f6b656e206973206e6f742076616c69640000000000000000000000000000600082015250565b7f636f6e747261637420696e76657374206973206e6f7420656e6f756768000000600082015250565b61145a816112c8565b811461146557600080fd5b50565b611471816112da565b811461147c57600080fd5b50565b61148881611306565b811461149357600080fd5b5056fea2646970667358221220c0aa59349be7bdee18e1263c7c30ed810af79a764222756c8884d46edabd426264736f6c63430008040033",
  "linkReferences": {},
  "deployedLinkReferences": {}
}