{
  "_format": "hh-sol-artifact-1",
  "contractName": "WalletInvest",
  "sourceName": "contracts/WalletInvest.sol",
  "abi": [
    {
      "inputs": [],
      "stateMutability": "nonpayable",
      "type": "constructor"
    },
    {
      "anonymous": false,
      "inputs": [
        {
          "indexed": true,
          "internalType": "address",
          "name": "sender",
          "type": "address"
        },
        {
          "indexed": true,
          "internalType": "uint256",
          "name": "id",
          "type": "uint256"
        },
        {
          "indexed": true,
          "internalType": "address",
          "name": "token",
          "type": "address"
        },
        {
          "indexed": false,
          "internalType": "uint256",
          "name": "balance",
          "type": "uint256"
        }
      ],
      "name": "UserInvestToken",
      "type": "event"
    },
    {
      "inputs": [
        {
          "internalType": "address",
          "name": "",
          "type": "address"
        }
      ],
      "name": "addressToTotalInvest",
      "outputs": [
        {
          "internalType": "uint256",
          "name": "id",
          "type": "uint256"
        },
        {
          "internalType": "uint256",
          "name": "total",
          "type": "uint256"
        },
        {
          "internalType": "address",
          "name": "token",
          "type": "address"
        }
      ],
      "stateMutability": "view",
      "type": "function"
    },
    {
      "inputs": [
        {
          "internalType": "address",
          "name": "_token",
          "type": "address"
        }
      ],
      "name": "getTotalInvestByToken",
      "outputs": [
        {
          "internalType": "uint256",
          "name": "",
          "type": "uint256"
        }
      ],
      "stateMutability": "view",
      "type": "function"
    },
    {
      "inputs": [
        {
          "internalType": "uint256",
          "name": "",
          "type": "uint256"
        }
      ],
      "name": "idToGlobalWallets",
      "outputs": [
        {
          "internalType": "uint256",
          "name": "id",
          "type": "uint256"
        },
        {
          "internalType": "address",
          "name": "token",
          "type": "address"
        },
        {
          "internalType": "uint256",
          "name": "balance",
          "type": "uint256"
        }
      ],
      "stateMutability": "view",
      "type": "function"
    },
    {
      "inputs": [
        {
          "internalType": "uint256",
          "name": "",
          "type": "uint256"
        }
      ],
      "name": "idToWallets",
      "outputs": [
        {
          "internalType": "uint256",
          "name": "id",
          "type": "uint256"
        },
        {
          "internalType": "address",
          "name": "owner",
          "type": "address"
        },
        {
          "internalType": "address",
          "name": "token",
          "type": "address"
        },
        {
          "internalType": "uint256",
          "name": "balance",
          "type": "uint256"
        }
      ],
      "stateMutability": "view",
      "type": "function"
    },
    {
      "inputs": [
        {
          "internalType": "address",
          "name": "_token",
          "type": "address"
        },
        {
          "internalType": "uint256",
          "name": "_amoun",
          "type": "uint256"
        }
      ],
      "name": "investToken",
      "outputs": [],
      "stateMutability": "payable",
      "type": "function"
    },
    {
      "inputs": [],
      "name": "owner",
      "outputs": [
        {
          "internalType": "address",
          "name": "",
          "type": "address"
        }
      ],
      "stateMutability": "view",
      "type": "function"
    }
  ],
  "bytecode": "0x608060405234801561001057600080fd5b5033600260006101000a81548173ffffffffffffffffffffffffffffffffffffffff021916908373ffffffffffffffffffffffffffffffffffffffff160217905550610d1c806100616000396000f3fe6080604052600436106100555760003560e01c806331b89daf1461005a57806361f6dfec14610099578063751f617c146100d657806380ae467d146101155780638da5cb5b14610155578063de8971fc14610180575b600080fd5b34801561006657600080fd5b50610081600480360381019061007c919061095b565b61019c565b60405161009093929190610b03565b60405180910390f35b3480156100a557600080fd5b506100c060048036038101906100bb91906108cd565b6101e6565b6040516100cd9190610aa3565b60405180910390f35b3480156100e257600080fd5b506100fd60048036038101906100f891906108cd565b610232565b60405161010c93929190610b3a565b60405180910390f35b34801561012157600080fd5b5061013c6004803603810190610137919061095b565b61027c565b60405161014c9493929190610abe565b60405180910390f35b34801561016157600080fd5b5061016a6102ec565b6040516101779190610a11565b60405180910390f35b61019a600480360381019061019591906108f6565b610312565b005b60046020528060005260406000206000915090508060000154908060010160009054906101000a900473ffffffffffffffffffffffffffffffffffffffff16908060020154905083565b6000600560008373ffffffffffffffffffffffffffffffffffffffff1673ffffffffffffffffffffffffffffffffffffffff168152602001908152602001600020600101549050919050565b60056020528060005260406000206000915090508060000154908060010154908060020160009054906101000a900473ffffffffffffffffffffffffffffffffffffffff16905083565b60036020528060005260406000206000915090508060000154908060010160009054906101000a900473ffffffffffffffffffffffffffffffffffffffff16908060020160009054906101000a900473ffffffffffffffffffffffffffffffffffffffff16908060030154905084565b600260009054906101000a900473ffffffffffffffffffffffffffffffffffffffff1681565b600073ffffffffffffffffffffffffffffffffffffffff168273ffffffffffffffffffffffffffffffffffffffff161415610382576040517f08c379a000000000000000000000000000000000000000000000000000000000815260040161037990610a63565b60405180910390fd5b6000829050818173ffffffffffffffffffffffffffffffffffffffff166370a08231336040518263ffffffff1660e01b81526004016103c19190610a11565b60206040518083038186803b1580156103d957600080fd5b505afa1580156103ed573d6000803e3d6000fd5b505050506040513d601f19601f820116820180604052508101906104119190610984565b1015610452576040517f08c379a000000000000000000000000000000000000000000000000000000000815260040161044990610a83565b60405180910390fd5b8073ffffffffffffffffffffffffffffffffffffffff166323b872dd3330856040518463ffffffff1660e01b815260040161048f93929190610a2c565b602060405180830381600087803b1580156104a957600080fd5b505af11580156104bd573d6000803e3d6000fd5b505050506040513d601f19601f820116820180604052508101906104e19190610932565b5060006104ee6000610675565b90506104fa6000610683565b60405180608001604052808281526020013373ffffffffffffffffffffffffffffffffffffffff1681526020018573ffffffffffffffffffffffffffffffffffffffff16815260200184815250600360008381526020019081526020016000206000820151816000015560208201518160010160006101000a81548173ffffffffffffffffffffffffffffffffffffffff021916908373ffffffffffffffffffffffffffffffffffffffff16021790555060408201518160020160006101000a81548173ffffffffffffffffffffffffffffffffffffffff021916908373ffffffffffffffffffffffffffffffffffffffff160217905550606082015181600301559050506106098484610699565b8373ffffffffffffffffffffffffffffffffffffffff16813373ffffffffffffffffffffffffffffffffffffffff167ff1da9bc2ee7742b9fbad039926849213f86ddb5b95737f7c763a940f6ac2f8d3866040516106679190610aa3565b60405180910390a450505050565b600081600001549050919050565b6001816000016000828254019250508190555050565b60006106a56001610675565b90506106b16001610683565b60405180606001604052808281526020018473ffffffffffffffffffffffffffffffffffffffff16815260200183815250600460008381526020019081526020016000206000820151816000015560208201518160010160006101000a81548173ffffffffffffffffffffffffffffffffffffffff021916908373ffffffffffffffffffffffffffffffffffffffff1602179055506040820151816002015590505080600560008573ffffffffffffffffffffffffffffffffffffffff1673ffffffffffffffffffffffffffffffffffffffff1681526020019081526020016000206000018190555081600560008573ffffffffffffffffffffffffffffffffffffffff1673ffffffffffffffffffffffffffffffffffffffff16815260200190815260200160002060010160008282546107ec9190610b82565b9250508190555082600560008573ffffffffffffffffffffffffffffffffffffffff1673ffffffffffffffffffffffffffffffffffffffff16815260200190815260200160002060020160006101000a81548173ffffffffffffffffffffffffffffffffffffffff021916908373ffffffffffffffffffffffffffffffffffffffff160217905550505050565b60008135905061088881610ca1565b92915050565b60008151905061089d81610cb8565b92915050565b6000813590506108b281610ccf565b92915050565b6000815190506108c781610ccf565b92915050565b6000602082840312156108df57600080fd5b60006108ed84828501610879565b91505092915050565b6000806040838503121561090957600080fd5b600061091785828601610879565b9250506020610928858286016108a3565b9150509250929050565b60006020828403121561094457600080fd5b60006109528482850161088e565b91505092915050565b60006020828403121561096d57600080fd5b600061097b848285016108a3565b91505092915050565b60006020828403121561099657600080fd5b60006109a4848285016108b8565b91505092915050565b6109b681610bd8565b82525050565b60006109c9601283610b71565b91506109d482610c4f565b602082019050919050565b60006109ec601583610b71565b91506109f782610c78565b602082019050919050565b610a0b81610c16565b82525050565b6000602082019050610a2660008301846109ad565b92915050565b6000606082019050610a4160008301866109ad565b610a4e60208301856109ad565b610a5b6040830184610a02565b949350505050565b60006020820190508181036000830152610a7c816109bc565b9050919050565b60006020820190508181036000830152610a9c816109df565b9050919050565b6000602082019050610ab86000830184610a02565b92915050565b6000608082019050610ad36000830187610a02565b610ae060208301866109ad565b610aed60408301856109ad565b610afa6060830184610a02565b95945050505050565b6000606082019050610b186000830186610a02565b610b2560208301856109ad565b610b326040830184610a02565b949350505050565b6000606082019050610b4f6000830186610a02565b610b5c6020830185610a02565b610b6960408301846109ad565b949350505050565b600082825260208201905092915050565b6000610b8d82610c16565b9150610b9883610c16565b9250827fffffffffffffffffffffffffffffffffffffffffffffffffffffffffffffffff03821115610bcd57610bcc610c20565b5b828201905092915050565b6000610be382610bf6565b9050919050565b60008115159050919050565b600073ffffffffffffffffffffffffffffffffffffffff82169050919050565b6000819050919050565b7f4e487b7100000000000000000000000000000000000000000000000000000000600052601160045260246000fd5b7f746f6b656e206973206e6f742076616c69640000000000000000000000000000600082015250565b7f62616c616e6365206973206e6f7420656e6f7567680000000000000000000000600082015250565b610caa81610bd8565b8114610cb557600080fd5b50565b610cc181610bea565b8114610ccc57600080fd5b50565b610cd881610c16565b8114610ce357600080fd5b5056fea2646970667358221220e007047644c2fa6986794a306993a8364e05ba909bfa0f5a2144ed668dc657aa64736f6c63430008040033",
  "linkReferences": {},
  "deployedLinkReferences": {}
}